{
  "contractName": "FlightSuretyApp",
  "abi": [
    {
      "constant": true,
      "inputs": [],
      "name": "REGISTRATION_FEE",
      "outputs": [
        {
          "name": "",
          "type": "uint256"
        }
      ],
      "payable": false,
      "stateMutability": "view",
      "type": "function"
    },
    {
      "inputs": [
        {
          "name": "dataContractAddress",
          "type": "address"
        }
      ],
      "payable": false,
      "stateMutability": "nonpayable",
      "type": "constructor"
    },
    {
      "anonymous": false,
      "inputs": [
        {
          "indexed": false,
          "name": "airline",
          "type": "address"
        },
        {
          "indexed": false,
          "name": "flight",
          "type": "string"
        },
        {
          "indexed": false,
          "name": "timestamp",
          "type": "uint256"
        },
        {
          "indexed": false,
          "name": "status",
          "type": "uint8"
        }
      ],
      "name": "FlightStatusInfo",
      "type": "event"
    },
    {
      "anonymous": false,
      "inputs": [
        {
          "indexed": false,
          "name": "flightKey",
          "type": "bytes32"
        }
      ],
      "name": "FlightRegistered",
      "type": "event"
    },
    {
      "anonymous": false,
      "inputs": [
        {
          "indexed": false,
          "name": "airline",
          "type": "address"
        },
        {
          "indexed": false,
          "name": "flight",
          "type": "string"
        },
        {
          "indexed": false,
          "name": "timestamp",
          "type": "uint256"
        },
        {
          "indexed": false,
          "name": "status",
          "type": "uint8"
        }
      ],
      "name": "OracleReport",
      "type": "event"
    },
    {
      "anonymous": false,
      "inputs": [
        {
          "indexed": false,
          "name": "index",
          "type": "uint8"
        },
        {
          "indexed": false,
          "name": "airline",
          "type": "address"
        },
        {
          "indexed": false,
          "name": "flight",
          "type": "string"
        },
        {
          "indexed": false,
          "name": "timestamp",
          "type": "uint256"
        }
      ],
      "name": "OracleRequest",
      "type": "event"
    },
    {
      "constant": false,
      "inputs": [],
      "name": "isOperational",
      "outputs": [
        {
          "name": "",
          "type": "bool"
        }
      ],
      "payable": false,
      "stateMutability": "nonpayable",
      "type": "function"
    },
    {
      "constant": false,
      "inputs": [
        {
          "name": "airline",
          "type": "address"
        },
        {
          "name": "name",
          "type": "string"
        }
      ],
      "name": "registerAirline",
      "outputs": [
        {
          "name": "success",
          "type": "bool"
        },
        {
          "name": "votes",
          "type": "uint256"
        }
      ],
      "payable": false,
      "stateMutability": "nonpayable",
      "type": "function"
    },
    {
      "constant": false,
      "inputs": [
        {
          "name": "flight",
          "type": "string"
        },
        {
          "name": "timestamp",
          "type": "uint256"
        }
      ],
      "name": "registerFlight",
      "outputs": [],
      "payable": false,
      "stateMutability": "nonpayable",
      "type": "function"
    },
    {
      "constant": false,
      "inputs": [
        {
          "name": "airline",
          "type": "address"
        },
        {
          "name": "flight",
          "type": "string"
        },
        {
          "name": "timestamp",
          "type": "uint256"
        }
      ],
      "name": "fetchFlightStatus",
      "outputs": [],
      "payable": false,
      "stateMutability": "nonpayable",
      "type": "function"
    },
    {
      "constant": false,
      "inputs": [],
      "name": "fund",
      "outputs": [],
      "payable": true,
      "stateMutability": "payable",
      "type": "function"
    },
    {
      "constant": false,
      "inputs": [
        {
          "name": "airline",
          "type": "address"
        },
        {
          "name": "flight",
          "type": "string"
        },
        {
          "name": "timestamp",
          "type": "uint256"
        }
      ],
      "name": "buy",
      "outputs": [],
      "payable": true,
      "stateMutability": "payable",
      "type": "function"
    },
    {
      "constant": false,
      "inputs": [
        {
          "name": "passenger",
          "type": "address"
        }
      ],
      "name": "pay",
      "outputs": [],
      "payable": false,
      "stateMutability": "nonpayable",
      "type": "function"
    },
    {
      "constant": false,
      "inputs": [],
      "name": "registerOracle",
      "outputs": [],
      "payable": true,
      "stateMutability": "payable",
      "type": "function"
    },
    {
      "constant": true,
      "inputs": [],
      "name": "getMyIndexes",
      "outputs": [
        {
          "name": "",
          "type": "uint8[3]"
        }
      ],
      "payable": false,
      "stateMutability": "view",
      "type": "function"
    },
    {
      "constant": false,
      "inputs": [
        {
          "name": "index",
          "type": "uint8"
        },
        {
          "name": "airline",
          "type": "address"
        },
        {
          "name": "flight",
          "type": "string"
        },
        {
          "name": "timestamp",
          "type": "uint256"
        },
        {
          "name": "statusCode",
          "type": "uint8"
        }
      ],
      "name": "submitOracleResponse",
      "outputs": [],
      "payable": false,
      "stateMutability": "nonpayable",
      "type": "function"
    }
  ],
  "bytecode": "0x60806040526000600160146101000a81548160ff021916908360ff16021790555034801561002c57600080fd5b50604051602080612a0583398101806040528101908080519060200190929190505050336000806101000a81548173ffffffffffffffffffffffffffffffffffffffff021916908373ffffffffffffffffffffffffffffffffffffffff16021790555080600160006101000a81548173ffffffffffffffffffffffffffffffffffffffff021916908373ffffffffffffffffffffffffffffffffffffffff16021790555050612925806100e06000396000f3006080604052600436106100af576000357c0100000000000000000000000000000000000000000000000000000000900463ffffffff1680630c11dedd146100b4578063339d2590146100f757806339cfc995146101015780635f1cc0e61461014657806364b4f75114610199578063b1c46d22146101c4578063b60d42881461021c578063c10f270014610226578063cd905dff146102a5578063ee38a749146102d4578063f83f11c01461034e575b600080fd5b3480156100c057600080fd5b506100f5600480360381019080803573ffffffffffffffffffffffffffffffffffffffff1690602001909291905050506103b3565b005b6100ff61048b565b005b34801561010d57600080fd5b50610144600480360381019080803590602001908201803590602001919091929391929390803590602001909291905050506105b3565b005b34801561015257600080fd5b5061015b610738565b6040518082600360200280838360005b8381101561018657808201518184015260208101905061016b565b5050505090500191505060405180910390f35b3480156101a557600080fd5b506101ae6108ad565b6040518082815260200191505060405180910390f35b61021a600480360381019080803573ffffffffffffffffffffffffffffffffffffffff169060200190929190803590602001908201803590602001919091929391929390803590602001909291905050506108b9565b005b610224610ae8565b005b34801561023257600080fd5b506102a3600480360381019080803560ff169060200190929190803573ffffffffffffffffffffffffffffffffffffffff16906020019092919080359060200190820180359060200191909192939192939080359060200190929190803560ff169060200190929190505050610ebf565b005b3480156102b157600080fd5b506102ba61170d565b604051808215151515815260200191505060405180910390f35b3480156102e057600080fd5b5061032d600480360381019080803573ffffffffffffffffffffffffffffffffffffffff1690602001909291908035906020019082018035906020019190919293919293905050506117d5565b60405180831515151581526020018281526020019250505060405180910390f35b34801561035a57600080fd5b506103b1600480360381019080803573ffffffffffffffffffffffffffffffffffffffff16906020019092919080359060200190820180359060200191909192939192939080359060200190929190505050612175565b005b600160009054906101000a900473ffffffffffffffffffffffffffffffffffffffff1673ffffffffffffffffffffffffffffffffffffffff16630c11dedd826040518263ffffffff167c0100000000000000000000000000000000000000000000000000000000028152600401808273ffffffffffffffffffffffffffffffffffffffff1673ffffffffffffffffffffffffffffffffffffffff168152602001915050600060405180830381600087803b15801561047057600080fd5b505af1158015610484573d6000803e3d6000fd5b5050505050565b61049361280c565b678ac7230489e800003410151515610513576040517f08c379a000000000000000000000000000000000000000000000000000000000815260040180806020018281038252601c8152602001807f526567697374726174696f6e206665652069732072657175697265640000000081525060200191505060405180910390fd5b61051c336123df565b9050604080519081016040528060011515815260200182815250600260003373ffffffffffffffffffffffffffffffffffffffff1673ffffffffffffffffffffffffffffffffffffffff16815260200190815260200160002060008201518160000160006101000a81548160ff0219169083151502179055506020820151816001019060036105ac92919061282f565b5090505050565b60006105f23385858080601f01602080910402602001604051908101604052809392919081815260200183838082843782019150505050505084612585565b9050600160009054906101000a900473ffffffffffffffffffffffffffffffffffffffff1673ffffffffffffffffffffffffffffffffffffffff1663538a0d9c858533866040518563ffffffff167c010000000000000000000000000000000000000000000000000000000002815260040180806020018473ffffffffffffffffffffffffffffffffffffffff1673ffffffffffffffffffffffffffffffffffffffff1681526020018381526020018281038252868682818152602001925080828437820191505095505050505050600060405180830381600087803b1580156106db57600080fd5b505af11580156106ef573d6000803e3d6000fd5b505050507fbc2e2465316fe44b06c0fb6f524b2edb5f66caa1ba5b1fe1e10ff178e8707e148160405180826000191660001916815260200191505060405180910390a150505050565b61074061280c565b600260003373ffffffffffffffffffffffffffffffffffffffff1673ffffffffffffffffffffffffffffffffffffffff16815260200190815260200160002060000160009054906101000a900460ff161515610804576040517f08c379a000000000000000000000000000000000000000000000000000000000815260040180806020018281038252601b8152602001807f4e6f74207265676973746572656420617320616e206f7261636c65000000000081525060200191505060405180910390fd5b600260003373ffffffffffffffffffffffffffffffffffffffff1673ffffffffffffffffffffffffffffffffffffffff1681526020019081526020016000206001016003806020026040519081016040528092919082600380156108a3576020028201916000905b82829054906101000a900460ff1660ff168152602001906001019060208260000104928301926001038202915080841161086c5790505b5050505050905090565b678ac7230489e8000081565b600080670de0b6b3a76400003411151515610962576040517f08c379a000000000000000000000000000000000000000000000000000000000815260040180806020018281038252602c8152602001807f50617373656e6765722063616e277420696e7375726520666f72206d6f72652081526020017f7468616e2031206574686572000000000000000000000000000000000000000081525060400191505060405180910390fd5b61099f8686868080601f01602080910402602001604051908101604052809392919081815260200183838082843782019150505050505085612585565b9150349050600160009054906101000a900473ffffffffffffffffffffffffffffffffffffffff1673ffffffffffffffffffffffffffffffffffffffff166378133ffd8333846040518463ffffffff167c01000000000000000000000000000000000000000000000000000000000281526004018084600019166000191681526020018373ffffffffffffffffffffffffffffffffffffffff1673ffffffffffffffffffffffffffffffffffffffff1681526020018281526020019350505050600060405180830381600087803b158015610a7957600080fd5b505af1158015610a8d573d6000803e3d6000fd5b50505050600160009054906101000a900473ffffffffffffffffffffffffffffffffffffffff1673ffffffffffffffffffffffffffffffffffffffff163460405160006040518083038185875af19250505050505050505050565b6000806000600160009054906101000a900473ffffffffffffffffffffffffffffffffffffffff1673ffffffffffffffffffffffffffffffffffffffff1663720c7cbb336040518263ffffffff167c0100000000000000000000000000000000000000000000000000000000028152600401808273ffffffffffffffffffffffffffffffffffffffff1673ffffffffffffffffffffffffffffffffffffffff168152602001915050606060405180830381600087803b158015610baa57600080fd5b505af1158015610bbe573d6000803e3d6000fd5b505050506040513d6060811015610bd457600080fd5b81019080805190602001909291908051906020019092919080519060200190929190505050809350819450829550505050821515610c7a576040517f08c379a000000000000000000000000000000000000000000000000000000000815260040180806020018281038252601d8152602001807f4169726c696e65206861736e277420626520726567697374657265642e00000081525060200191505060405180910390fd5b81151515610cf0576040517f08c379a00000000000000000000000000000000000000000000000000000000081526004018080602001828103825260158152602001807f4169726c696e65206861732062652066756e646564000000000000000000000081525060200191505060405180910390fd5b678ac7230489e800003410151515610d96576040517f08c379a000000000000000000000000000000000000000000000000000000000815260040180806020018281038252602a8152602001807f5468652076616c7565206973206e6f7420656e6f7567682e204174206c65617381526020017f742031302065746865720000000000000000000000000000000000000000000081525060400191505060405180910390fd5b600160009054906101000a900473ffffffffffffffffffffffffffffffffffffffff1673ffffffffffffffffffffffffffffffffffffffff166323024408336040518263ffffffff167c0100000000000000000000000000000000000000000000000000000000028152600401808273ffffffffffffffffffffffffffffffffffffffff1673ffffffffffffffffffffffffffffffffffffffff168152602001915050600060405180830381600087803b158015610e5357600080fd5b505af1158015610e67573d6000803e3d6000fd5b50505050600160009054906101000a900473ffffffffffffffffffffffffffffffffffffffff1673ffffffffffffffffffffffffffffffffffffffff163460405160006040518083038185875af19250505050505050565b6000808760ff16600260003373ffffffffffffffffffffffffffffffffffffffff1673ffffffffffffffffffffffffffffffffffffffff1681526020019081526020016000206001016000600381101515610f1657fe5b602091828204019190069054906101000a900460ff1660ff161480610fa557508760ff16600260003373ffffffffffffffffffffffffffffffffffffffff1673ffffffffffffffffffffffffffffffffffffffff1681526020019081526020016000206001016001600381101515610f8a57fe5b602091828204019190069054906101000a900460ff1660ff16145b8061101a57508760ff16600260003373ffffffffffffffffffffffffffffffffffffffff1673ffffffffffffffffffffffffffffffffffffffff1681526020019081526020016000206001016002600381101515610fff57fe5b602091828204019190069054906101000a900460ff1660ff16145b15156110b4576040517f08c379a00000000000000000000000000000000000000000000000000000000081526004018080602001828103825260238152602001807f496e64657820646f6573206e6f74206d61746368206f7261636c65207265717581526020017f657374000000000000000000000000000000000000000000000000000000000081525060400191505060405180910390fd5b8787878787604051602001808660ff1660ff167f01000000000000000000000000000000000000000000000000000000000000000281526001018573ffffffffffffffffffffffffffffffffffffffff1673ffffffffffffffffffffffffffffffffffffffff166c010000000000000000000000000281526014018484808284378201915050828152602001955050505050506040516020818303038152906040526040518082805190602001908083835b60208310151561118b5780518252602082019150602081019050602083039250611166565b6001836020036101000a0380198251168184511680821785525050505050509050019150506040518091039020915060036000836000191660001916815260200190815260200160002060000160149054906101000a900460ff161515611280576040517f08c379a000000000000000000000000000000000000000000000000000000000815260040180806020018281038252602f8152602001807f466c69676874206f722074696d657374616d7020646f206e6f74206d6174636881526020017f206f7261636c652072657175657374000000000000000000000000000000000081525060400191505060405180910390fd5b60036000836000191660001916815260200190815260200160002060010160008460ff1660ff1681526020019081526020016000203390806001815401808255809150509060018203906000526020600020016000909192909190916101000a81548173ffffffffffffffffffffffffffffffffffffffff021916908373ffffffffffffffffffffffffffffffffffffffff160217905550506113568787878080601f01602080910402602001604051908101604052809392919081815260200183838082843782019150505050505086612585565b90506000600160009054906101000a900473ffffffffffffffffffffffffffffffffffffffff1673ffffffffffffffffffffffffffffffffffffffff1663cb19794a836040518263ffffffff167c0100000000000000000000000000000000000000000000000000000000028152600401808260001916600019168152602001915050602060405180830381600087803b1580156113f357600080fd5b505af1158015611407573d6000803e3d6000fd5b505050506040513d602081101561141d57600080fd5b810190808051906020019092919050505060ff161415156114cc576040517f08c379a00000000000000000000000000000000000000000000000000000000081526004018080602001828103825260288152602001807f54686973206f7261636c6573207265706f6e73657320686173206265656e207381526020017f75626d697474656400000000000000000000000000000000000000000000000081525060400191505060405180910390fd5b7f43c853095c2752648493c88b4baac4d580d2594ffb00c6f1d4242d844514f7838787878787604051808673ffffffffffffffffffffffffffffffffffffffff1673ffffffffffffffffffffffffffffffffffffffff168152602001806020018481526020018360ff1660ff16815260200182810382528686828181526020019250808284378201915050965050505050505060405180910390a16003806000846000191660001916815260200190815260200160002060010160008560ff1660ff16815260200190815260200160002080549050101515611703577fe23f5229de535c091e3b7bec2665f5d698192d3b31393066e8987b7a05076b6c8787878787604051808673ffffffffffffffffffffffffffffffffffffffff1673ffffffffffffffffffffffffffffffffffffffff168152602001806020018481526020018360ff1660ff16815260200182810382528686828181526020019250808284378201915050965050505050505060405180910390a1600160009054906101000a900473ffffffffffffffffffffffffffffffffffffffff1673ffffffffffffffffffffffffffffffffffffffff16630f9429b782856040518363ffffffff167c01000000000000000000000000000000000000000000000000000000000281526004018083600019166000191681526020018260ff1660ff16815260200192505050600060405180830381600087803b1580156116ea57600080fd5b505af11580156116fe573d6000803e3d6000fd5b505050505b5050505050505050565b6000600160009054906101000a900473ffffffffffffffffffffffffffffffffffffffff1673ffffffffffffffffffffffffffffffffffffffff1663cd905dff6040518163ffffffff167c0100000000000000000000000000000000000000000000000000000000028152600401602060405180830381600087803b15801561179557600080fd5b505af11580156117a9573d6000803e3d6000fd5b505050506040513d60208110156117bf57600080fd5b8101908080519060200190929190505050905090565b6000806000806000806000806060600080600160009054906101000a900473ffffffffffffffffffffffffffffffffffffffff1673ffffffffffffffffffffffffffffffffffffffff1663720c7cbb336040518263ffffffff167c0100000000000000000000000000000000000000000000000000000000028152600401808273ffffffffffffffffffffffffffffffffffffffff1673ffffffffffffffffffffffffffffffffffffffff168152602001915050606060405180830381600087803b1580156118a357600080fd5b505af11580156118b7573d6000803e3d6000fd5b505050506040513d60608110156118cd57600080fd5b81019080805190602001909291908051906020019092919080519060200190929190505050809750819a50829b50505050600160009054906101000a900473ffffffffffffffffffffffffffffffffffffffff1673ffffffffffffffffffffffffffffffffffffffff1663720c7cbb8f6040518263ffffffff167c0100000000000000000000000000000000000000000000000000000000028152600401808273ffffffffffffffffffffffffffffffffffffffff1673ffffffffffffffffffffffffffffffffffffffff168152602001915050606060405180830381600087803b1580156119bb57600080fd5b505af11580156119cf573d6000803e3d6000fd5b505050506040513d60608110156119e557600080fd5b8101908080519060200190929190805190602001909291908051906020019092919050505080975081985082995050505060019a5060009950871515611a93576040517f08c379a00000000000000000000000000000000000000000000000000000000081526004018080602001828103825260198152602001807f5468652073656e646572206973206e6f7420616374697665640000000000000081525060200191505060405180910390fd5b86151515611b2f576040517f08c379a00000000000000000000000000000000000000000000000000000000081526004018080602001828103825260248152602001807f546865206e6577206169726c696e6520686173206265656e207265676973746581526020017f726564210000000000000000000000000000000000000000000000000000000081525060400191505060405180910390fd5b600160009054906101000a900473ffffffffffffffffffffffffffffffffffffffff1673ffffffffffffffffffffffffffffffffffffffff1663f77890ea6040518163ffffffff167c0100000000000000000000000000000000000000000000000000000000028152600401602060405180830381600087803b158015611bb557600080fd5b505af1158015611bc9573d6000803e3d6000fd5b505050506040513d6020811015611bdf57600080fd5b810190808051906020019092919050505093506004841015611cff57600160009054906101000a900473ffffffffffffffffffffffffffffffffffffffff1673ffffffffffffffffffffffffffffffffffffffff1663ee38a7498f8f8f6040518463ffffffff167c0100000000000000000000000000000000000000000000000000000000028152600401808473ffffffffffffffffffffffffffffffffffffffff1673ffffffffffffffffffffffffffffffffffffffff1681526020018060200182810382528484828181526020019250808284378201915050945050505050600060405180830381600087803b158015611cda57600080fd5b505af1158015611cee573d6000803e3d6000fd5b5050505060019a506000995061215e565b600160009054906101000a900473ffffffffffffffffffffffffffffffffffffffff1673ffffffffffffffffffffffffffffffffffffffff16634d6c80fa8f6040518263ffffffff167c0100000000000000000000000000000000000000000000000000000000028152600401808273ffffffffffffffffffffffffffffffffffffffff1673ffffffffffffffffffffffffffffffffffffffff168152602001915050600060405180830381600087803b158015611dbc57600080fd5b505af1158015611dd0573d6000803e3d6000fd5b505050506040513d6000823e3d601f19601f820116820180604052506020811015611dfa57600080fd5b810190808051640100000000811115611e1257600080fd5b82810190506020810184811115611e2857600080fd5b8151856020820283011164010000000082111715611e4557600080fd5b5050929190505050925060009150600090505b8251811015611ec2573373ffffffffffffffffffffffffffffffffffffffff168382815181101515611e8657fe5b9060200190602002015173ffffffffffffffffffffffffffffffffffffffff161415611eb55760019150611ec2565b8080600101915050611e58565b81151515611f38576040517f08c379a00000000000000000000000000000000000000000000000000000000081526004018080602001828103825260158152602001807f5468652073656e6465722068617320766f74656421000000000000000000000081525060200191505060405180910390fd5b600160009054906101000a900473ffffffffffffffffffffffffffffffffffffffff1673ffffffffffffffffffffffffffffffffffffffff1663e38d5b868f336040518363ffffffff167c0100000000000000000000000000000000000000000000000000000000028152600401808373ffffffffffffffffffffffffffffffffffffffff1673ffffffffffffffffffffffffffffffffffffffff1681526020018273ffffffffffffffffffffffffffffffffffffffff1673ffffffffffffffffffffffffffffffffffffffff16815260200192505050600060405180830381600087803b15801561202957600080fd5b505af115801561203d573d6000803e3d6000fd5b5050505060028481151561204d57fe5b04600184510110151561215657600160009054906101000a900473ffffffffffffffffffffffffffffffffffffffff1673ffffffffffffffffffffffffffffffffffffffff1663ee38a7498f8f8f6040518463ffffffff167c0100000000000000000000000000000000000000000000000000000000028152600401808473ffffffffffffffffffffffffffffffffffffffff1673ffffffffffffffffffffffffffffffffffffffff1681526020018060200182810382528484828181526020019250808284378201915050945050505050600060405180830381600087803b15801561213957600080fd5b505af115801561214d573d6000803e3d6000fd5b5050505060019a505b600183510199505b8a8a9a509a50505050505050505050935093915050565b600080612181336126aa565b91508186868686604051602001808660ff1660ff167f01000000000000000000000000000000000000000000000000000000000000000281526001018573ffffffffffffffffffffffffffffffffffffffff1673ffffffffffffffffffffffffffffffffffffffff166c010000000000000000000000000281526014018484808284378201915050828152602001955050505050506040516020818303038152906040526040518082805190602001908083835b60208310151561225a5780518252602082019150602081019050602083039250612235565b6001836020036101000a0380198251168184511680821785525050505050509050019150506040518091039020905060408051908101604052803373ffffffffffffffffffffffffffffffffffffffff1681526020016001151581525060036000836000191660001916815260200190815260200160002060008201518160000160006101000a81548173ffffffffffffffffffffffffffffffffffffffff021916908373ffffffffffffffffffffffffffffffffffffffff16021790555060208201518160000160146101000a81548160ff0219169083151502179055509050507f3ed01f2c3fc24c6b329d931e35b03e390d23497d22b3f90e15b600343e93df118287878787604051808660ff1660ff1681526020018573ffffffffffffffffffffffffffffffffffffffff1673ffffffffffffffffffffffffffffffffffffffff1681526020018060200183815260200182810382528585828181526020019250808284378201915050965050505050505060405180910390a1505050505050565b6123e761280c565b6123ef61280c565b6123f8836126aa565b81600060038110151561240757fe5b602002019060ff16908160ff168152505080600060038110151561242757fe5b602002015181600160038110151561243b57fe5b602002019060ff16908160ff16815250505b80600060038110151561245c57fe5b602002015160ff1681600160038110151561247357fe5b602002015160ff1614156124af5761248a836126aa565b81600160038110151561249957fe5b602002019060ff16908160ff168152505061244d565b8060016003811015156124be57fe5b60200201518160026003811015156124d257fe5b602002019060ff16908160ff16815250505b8060006003811015156124f357fe5b602002015160ff1681600260038110151561250a57fe5b602002015160ff161480612549575080600160038110151561252857fe5b602002015160ff1681600260038110151561253f57fe5b602002015160ff16145b1561257c57612557836126aa565b81600260038110151561256657fe5b602002019060ff16908160ff16815250506124e4565b80915050919050565b6000838383604051602001808473ffffffffffffffffffffffffffffffffffffffff1673ffffffffffffffffffffffffffffffffffffffff166c0100000000000000000000000002815260140183805190602001908083835b60208310151561260357805182526020820191506020810190506020830392506125de565b6001836020036101000a03801982511681845116808217855250505050505090500182815260200193505050506040516020818303038152906040526040518082805190602001908083835b602083101515612674578051825260208201915060208101905060208303925061264f565b6001836020036101000a038019825116818451168082178552505050505050905001915050604051809103902090509392505050565b6000806000600a91508160ff166001601481819054906101000a900460ff168092919060010191906101000a81548160ff021916908360ff16021790555060ff16430340856040516020018083600019166000191681526020018273ffffffffffffffffffffffffffffffffffffffff1673ffffffffffffffffffffffffffffffffffffffff166c01000000000000000000000000028152601401925050506040516020818303038152906040526040518082805190602001908083835b60208310151561278d5780518252602082019150602081019050602083039250612768565b6001836020036101000a0380198251168184511680821785525050505050509050019150506040518091039020600190048115156127c757fe5b06905060fa600160149054906101000a900460ff1660ff161115612802576000600160146101000a81548160ff021916908360ff1602179055505b8092505050919050565b606060405190810160405280600390602082028038833980820191505090505090565b826003601f016020900481019282156128b85791602002820160005b8382111561288957835183826101000a81548160ff021916908360ff160217905550926020019260010160208160000104928301926001030261284b565b80156128b65782816101000a81549060ff0219169055600101602081600001049283019260010302612889565b505b5090506128c591906128c9565b5090565b6128f691905b808211156128f257600081816101000a81549060ff0219169055506001016128cf565b5090565b905600a165627a7a723058207f1f9829cdee43209bcb34e65e98ae11117f22997de5353321d254061c22ab6e0029",
  "source": "pragma solidity >=0.4.25;\n\n// It's important to avoid vulnerabilities due to numeric overflow bugs\n// OpenZeppelin's SafeMath library, when used correctly, protects agains such bugs\n// More info: https://www.nccgroup.trust/us/about-us/newsroom-and-events/blog/2018/november/smart-contract-insecurity-bad-arithmetic/\n\nimport \"../node_modules/openzeppelin-solidity/contracts/math/SafeMath.sol\";\n\n/************************************************** */\n/* FlightSurety Smart Contract                      */\n/************************************************** */\ncontract FlightSuretyApp {\n    using SafeMath for uint256; // Allow SafeMath functions to be called for all uint256 types (similar to \"prototype\" in Javascript)\n\n    /********************************************************************************************/\n    /*                                       DATA VARIABLES                                     */\n    /********************************************************************************************/\n\n    // Flight status codees\n    uint8 private constant STATUS_CODE_UNKNOWN = 0;\n    uint8 private constant STATUS_CODE_ON_TIME = 10;\n    uint8 private constant STATUS_CODE_LATE_AIRLINE = 20;\n    uint8 private constant STATUS_CODE_LATE_WEATHER = 30;\n    uint8 private constant STATUS_CODE_LATE_TECHNICAL = 40;\n    uint8 private constant STATUS_CODE_LATE_OTHER = 50;\n\n    address private contractOwner;          // Account used to deploy contract\n\n    FlightSuretyData dataContract;\n    /********************************************************************************************/\n    /*                                       FUNCTION MODIFIERS                                 */\n    /********************************************************************************************/\n\n    // Modifiers help avoid duplication of code. They are typically used to validate something\n    // before a function is allowed to be executed.\n\n    /**\n    * @dev Modifier that requires the \"operational\" boolean variable to be \"true\"\n    *      This is used on all state changing functions to pause the contract in \n    *      the event there is an issue that needs to be fixed\n    */\n    modifier requireIsOperational() \n    {\n         // Modify to call data contract's status\n        require(isOperational(), \"Contract is currently not operational\");  \n        _;  // All modifiers require an \"_\" which indicates where the function body will be added\n    }\n\n    /**\n    * @dev Modifier that requires the \"ContractOwner\" account to be the function caller\n    */\n    modifier requireContractOwner()\n    {\n        require(msg.sender == contractOwner, \"Caller is not contract owner\");\n        _;\n    }\n\n    /********************************************************************************************/\n    /*                                       CONSTRUCTOR                                        */\n    /********************************************************************************************/\n\n    /**\n    * @dev Contract constructor\n    *\n    */\n    constructor\n                                (\n                                    address dataContractAddress\n                                ) \n                                public \n    {\n        contractOwner = msg.sender;\n        dataContract = FlightSuretyData(dataContractAddress);\n    }\n\n    /********************************************************************************************/\n    /*                                       UTILITY FUNCTIONS                                  */\n    /********************************************************************************************/\n\n    function isOperational() \n                            public \n                            returns(bool) \n    {\n        // TODO: \n        return dataContract.isOperational();  // Modify to call data contract's status\n    }\n\n    /********************************************************************************************/\n    /*                                     SMART CONTRACT FUNCTIONS                             */\n    /********************************************************************************************/\n\n  \n   /**\n    * @dev Add an airline to the registration queue\n    *\n    */   \n    function registerAirline\n                            (  \n                                address airline,\n                                string name \n                            )\n                            external\n                            returns(bool success, uint256 votes)\n    {\n       // ****** define the variables ********* \n        bool senderIsRegistered;\n        bool senderIsFunded;\n        bool newIsRegistered;\n        bool newIsFunded;\n        uint256 numberOfApproved;\n       // ****** datacontractmsg.senderairline *********  \n        (senderIsRegistered, senderIsFunded, numberOfApproved) = dataContract.getAirlineInfo(msg.sender);\n        (newIsRegistered, newIsFunded, numberOfApproved) = dataContract.getAirlineInfo(airline);\n        success = true;\n        votes = 0;\n       // ****** funded ********* \n        require(senderIsFunded, \"The sender is not actived\");\n        require(!newIsRegistered, \"The new airline has been registered!\");\n       // ******  ********* \n        uint256 registeredAirlineCount = dataContract.getRegisteredAirlinesCount();\n       // ****** 4 ********* \n        if(registeredAirlineCount < 4)\n        {\n            dataContract.registerAirline(airline, name);\n            success = true;\n            votes = 0;\n        } \n       // ****** 4consensus mechanism ********* \n       else {\n            address[] memory approvedBy = dataContract.getAirlineApprovalList(airline);\n            bool isVoted = false;\n            for(uint i=0; i<approvedBy.length; i++) {\n                if(approvedBy[i] == msg.sender) {\n                    isVoted = true;\n                    break;\n                }\n            }\n\n            require(!isVoted, \"The sender has voted!\");\n\n            dataContract.addToAirlineApprovalList(airline, msg.sender);\n            if(approvedBy.length+1 >= registeredAirlineCount/2) {\n                dataContract.registerAirline(airline, name);\n                success = true;\n            }\n            votes = approvedBy.length + 1;\n       }\n       return (success, votes);\n    }\n\n   /**\n    * @dev Register a future flight for insuring.\n    *\n    */  \n    function registerFlight\n                                (\n                                    string flight,\n                                    uint256 timestamp\n                                )\n                                external\n    {\n        // %TODO:\n        bytes32 flightKey = getFlightKey(msg.sender, flight, timestamp);\n        dataContract.registerFlight(flight, msg.sender, timestamp);\n        emit FlightRegistered(flightKey);\n    }\n    \n   /**\n //   * @dev Called after oracle has updated flight status\n //   *\n //   */  \n //   function processFlightStatus\n //                               (\n //                                   address airline,\n   //                                 string memory flight,\n     //                               uint256 timestamp,\n       //                             uint8 statusCode\n         //                       )\n           //                     internal\n //   {\n //       //%TODO flight\n //       bytes32 key = keccak256(abi.encodePacked(airline, flight, timestamp));\n //       flights[key].statusCode = statusCode;\n //   }\n\n\n    // Generate a request for oracles to fetch flight information\n    function fetchFlightStatus\n                        (\n                            address airline,\n                            string flight,\n                            uint256 timestamp                            \n                        )\n                        external\n    {\n        uint8 index = getRandomIndex(msg.sender);\n\n        // Generate a unique key for storing the request\n        bytes32 key = keccak256(abi.encodePacked(index, airline, flight, timestamp));\n        oracleResponses[key] = ResponseInfo({\n                                                requester: msg.sender,\n                                                isOpen: true\n                                            });\n\n        emit OracleRequest(index, airline, flight, timestamp);\n    } \n\n    function fund () public payable \n    {\n        bool airlineRegistered;\n        bool airlineFunded;\n        uint256 approvedByLength;\n       (airlineRegistered, airlineFunded, approvedByLength) = dataContract.getAirlineInfo(msg.sender);\n       require(airlineRegistered, \"Airline hasn't be registered.\");\n       require(!airlineFunded, \"Airline has be funded\");\n       require(msg.value >= 10 ether, \"The value is not enough. At least 10 ether\");\n       dataContract.fund(msg.sender);\n       dataContract.call.value(msg.value)();\n    }\n\n    function buy(address airline, string flight, uint256 timestamp) external payable \n    {\n        // TODO: \n        require(msg.value<=1 ether, \"Passenger can't insure for more than 1 ether\");\n        bytes32 flightKey = getFlightKey(airline, flight, timestamp);\n        uint256 price = uint256(msg.value);\n        dataContract.buy(flightKey, msg.sender, price);\n        dataContract.call.value(msg.value)();\n    }\n\n    function pay(address passenger) external \n    {\n        dataContract.pay(passenger);\n    }\n\n\n// region ORACLE MANAGEMENT\n\n    // Incremented to add pseudo-randomness at various points\n    uint8 private nonce = 0;    \n\n    // Fee to be paid when registering oracle\n    uint256 public constant REGISTRATION_FEE = 10 ether;\n\n    // Number of oracles that must respond for valid status\n    uint256 private constant MIN_RESPONSES = 3;\n\n\n    struct Oracle {\n        bool isRegistered;\n        uint8[3] indexes;        \n    }\n\n    // Track all registered oracles\n    mapping(address => Oracle) private oracles;\n\n    // Model for responses from oracles\n    struct ResponseInfo {\n        address requester;                              // Account that requested status\n        bool isOpen;                                    // If open, oracle responses are accepted\n        mapping(uint8 => address[]) responses;          // Mapping key is the status code reported\n                                                        // This lets us group responses and identify\n                                                        // the response that majority of the oracles\n    }\n\n    // Track all oracle responses\n    // Key = hash(index, flight, timestamp)\n    mapping(bytes32 => ResponseInfo) private oracleResponses;\n\n    // Event fired each time an oracle submits a response\n    event FlightStatusInfo(address airline, string flight, uint256 timestamp, uint8 status);\n\n    event FlightRegistered(bytes32 flightKey);\n\n    event OracleReport(address airline, string flight, uint256 timestamp, uint8 status);\n\n    // Event fired when flight status request is submitted\n    // Oracles track this and if they have a matching index\n    // they fetch data and submit a response\n    event OracleRequest(uint8 index, address airline, string flight, uint256 timestamp);\n\n\n    // Register an oracle with the contract\n    function registerOracle\n                            (\n                            )\n                            external\n                            payable\n    {\n        // Require registration fee\n        require(msg.value >= REGISTRATION_FEE, \"Registration fee is required\");\n\n        uint8[3] memory indexes = generateIndexes(msg.sender);\n\n        oracles[msg.sender] = Oracle({\n                                        isRegistered: true,\n                                        indexes: indexes\n                                    });\n    }\n\n    function getMyIndexes\n                            (\n                            )\n                            view\n                            external\n                            returns(uint8[3] memory )\n    {\n        require(oracles[msg.sender].isRegistered, \"Not registered as an oracle\");\n\n        return oracles[msg.sender].indexes;\n    }\n\n\n\n\n    // Called by oracle when a response is available to an outstanding request\n    // For the response to be accepted, there must be a pending request that is open\n    // and matches one of the three Indexes randomly assigned to the oracle at the\n    // time of registration (i.e. uninvited oracles are not welcome)\n    function submitOracleResponse\n                        (\n                            uint8 index,\n                            address airline,\n                            string flight,\n                            uint256 timestamp,\n                            uint8 statusCode\n                        )\n                        external\n    {\n        require((oracles[msg.sender].indexes[0] == index) || (oracles[msg.sender].indexes[1] == index) || (oracles[msg.sender].indexes[2] == index), \"Index does not match oracle request\");\n\n\n        bytes32 key = keccak256(abi.encodePacked(index, airline, flight, timestamp)); \n        require(oracleResponses[key].isOpen, \"Flight or timestamp do not match oracle request\");\n\n        oracleResponses[key].responses[statusCode].push(msg.sender);\n\n        bytes32 flightKey = getFlightKey(airline, flight, timestamp);\n        require(dataContract.getFlightKeyStatus(flightKey)==0, \"This oracles reponses has been submitted\");\n        // Information isn't considered verified until at least MIN_RESPONSES\n        // oracles respond with the *** same *** information\n        emit OracleReport(airline, flight, timestamp, statusCode);\n        if (oracleResponses[key].responses[statusCode].length >= MIN_RESPONSES) {\n            emit FlightStatusInfo(airline, flight, timestamp, statusCode);\n\n            // Handle flight status as appropriate\n            \n            dataContract.processFlightStatus(flightKey, statusCode);\n        }\n        // TODO: oracleResponses[key].responses[statusCode].length\n    }\n\n\n    function getFlightKey\n                        (\n                            address airline,\n                            string memory flight,\n                            uint256 timestamp\n                        )\n                        pure\n                        internal\n                        returns(bytes32) \n    {\n        return keccak256(abi.encodePacked(airline, flight, timestamp));\n    }\n\n    // Returns array of three non-duplicating integers from 0-9\n    function generateIndexes\n                            (                       \n                                address account         \n                            )\n                            internal\n                            returns(uint8[3] memory)\n    {\n        uint8[3] memory indexes;\n        indexes[0] = getRandomIndex(account);\n        \n        indexes[1] = indexes[0];\n        while(indexes[1] == indexes[0]) {\n            indexes[1] = getRandomIndex(account);\n        }\n\n        indexes[2] = indexes[1];\n        while((indexes[2] == indexes[0]) || (indexes[2] == indexes[1])) {\n            indexes[2] = getRandomIndex(account);\n        }\n\n        return indexes;\n    }\n\n    // Returns array of three non-duplicating integers from 0-9\n    function getRandomIndex\n                            (\n                                address account\n                            )\n                            internal\n                            returns (uint8)\n    {\n        uint8 maxValue = 10;\n\n        // Pseudo random number...the incrementing nonce adds variation\n        uint8 random = uint8(uint256(keccak256(abi.encodePacked(blockhash(block.number - nonce++), account))) % maxValue);\n\n        if (nonce > 250) {\n            nonce = 0;  // Can only fetch blockhashes for last 256 blocks so we adapt\n        }\n\n        return random;\n    }\n\n// endregion\n\n}   \n\n\ncontract FlightSuretyData {\n    function setOperatingStatus\n                            (\n                                bool mode\n                            ) \n                            external;\n    function registerAirline\n                            (   \n                                address airline,\n                                string name\n                            )\n                            external;\n\n    function buy\n                            (\n                                bytes32 flightKey, \n                                address passenger,\n                                uint256 price\n                            )\n                            external;\n                            //payable;\n    function pay\n                            (\n                                address account\n                            )\n                            external;\n    function fund\n                            (   \n                                address airline\n                            )\n                            public;\n    function isOperational() \n                            public \n                            view \n                            returns(bool); \n\n    function getAirlineInfo(address airline)\n    external\n    returns (bool isRegistered, bool isFunded, uint256 approvedByLength);\n\n    function getRegisteredAirlinesCount()\n    external\n    returns (uint256);\n\n    function getAirlineApprovalList(address airline)\n    external\n    returns (address[]);\n\n    function getFlightKeyStatus(bytes32 flightKey) external returns(uint8);\n\n    function addToAirlineApprovalList(address airline, address approver)\n    external;\n\n    function registerFlight\n                                (\n                                    string flight,\n                                    address airline,\n                                    uint256 timestamp\n                                )\n                                external;\n\n    function processFlightStatus\n                                (\n                                    bytes32 flightKey,\n                                    uint8 statusCode\n                                )\n                                external;\n\n}\n",
  "sourcePath": "/Users/hong/OneDrive - shanghaitech.edu.cn/projects/blockchainND/lesson6/project/FlightSurety/contracts/FlightSuretyApp.sol",
  "compiler": {
    "name": "solc",
    "version": "0.4.26+commit.4563c3fc.Emscripten.clang"
  },
  "schemaVersion": "3.0.9",
  "updatedAt": "2019-08-18T02:52:22.334Z",
  "devdoc": {
    "methods": {
      "fetchFlightStatus(address,string,uint256)": {
        "details": "Called after oracle has updated flight status //   * //   "
      },
      "registerAirline(address,string)": {
        "details": "Add an airline to the registration queue    "
      },
      "registerFlight(string,uint256)": {
        "details": "Register a future flight for insuring.    "
      }
    }
  },
  "userdoc": {
    "methods": {
      "isOperational()": {
        "notice": "*****************************************************************************************"
      }
    }
  }
}