{
  "contractName": "FlightSuretyData",
  "abi": [
    {
      "constant": true,
      "inputs": [
        {
          "name": "",
          "type": "uint256"
        }
      ],
      "name": "airline_list",
      "outputs": [
        {
          "name": "",
          "type": "address"
        }
      ],
      "payable": false,
      "stateMutability": "view",
      "type": "function"
    },
    {
      "constant": true,
      "inputs": [
        {
          "name": "",
          "type": "bytes32"
        }
      ],
      "name": "flights",
      "outputs": [
        {
          "name": "isRegistered",
          "type": "bool"
        },
        {
          "name": "statusCode",
          "type": "uint8"
        },
        {
          "name": "updatedTimestamp",
          "type": "uint256"
        },
        {
          "name": "airline",
          "type": "address"
        },
        {
          "name": "flight",
          "type": "string"
        }
      ],
      "payable": false,
      "stateMutability": "view",
      "type": "function"
    },
    {
      "constant": true,
      "inputs": [
        {
          "name": "",
          "type": "address"
        }
      ],
      "name": "passengersBalances",
      "outputs": [
        {
          "name": "",
          "type": "uint256"
        }
      ],
      "payable": false,
      "stateMutability": "view",
      "type": "function"
    },
    {
      "constant": true,
      "inputs": [
        {
          "name": "",
          "type": "address"
        }
      ],
      "name": "airlines",
      "outputs": [
        {
          "name": "isRegistered",
          "type": "bool"
        },
        {
          "name": "isFunded",
          "type": "bool"
        },
        {
          "name": "name",
          "type": "string"
        }
      ],
      "payable": false,
      "stateMutability": "view",
      "type": "function"
    },
    {
      "constant": true,
      "inputs": [
        {
          "name": "",
          "type": "address"
        }
      ],
      "name": "authorizedContracts",
      "outputs": [
        {
          "name": "",
          "type": "bool"
        }
      ],
      "payable": false,
      "stateMutability": "view",
      "type": "function"
    },
    {
      "constant": true,
      "inputs": [
        {
          "name": "",
          "type": "uint256"
        }
      ],
      "name": "flight_list",
      "outputs": [
        {
          "name": "",
          "type": "bytes32"
        }
      ],
      "payable": false,
      "stateMutability": "view",
      "type": "function"
    },
    {
      "constant": true,
      "inputs": [],
      "name": "registeredAirlinesCount",
      "outputs": [
        {
          "name": "",
          "type": "uint256"
        }
      ],
      "payable": false,
      "stateMutability": "view",
      "type": "function"
    },
    {
      "inputs": [
        {
          "name": "firstAirlineAddress",
          "type": "address"
        }
      ],
      "payable": false,
      "stateMutability": "nonpayable",
      "type": "constructor"
    },
    {
      "payable": true,
      "stateMutability": "payable",
      "type": "fallback"
    },
    {
      "anonymous": false,
      "inputs": [
        {
          "indexed": false,
          "name": "flightKey",
          "type": "bytes32"
        },
        {
          "indexed": false,
          "name": "status",
          "type": "uint8"
        },
        {
          "indexed": false,
          "name": "passengersCount",
          "type": "uint256"
        }
      ],
      "name": "FlightStatusUpdated",
      "type": "event"
    },
    {
      "anonymous": false,
      "inputs": [
        {
          "indexed": false,
          "name": "passenger",
          "type": "address"
        },
        {
          "indexed": false,
          "name": "refundAmount",
          "type": "uint256"
        }
      ],
      "name": "AmountRefundedToPassengerBalance",
      "type": "event"
    },
    {
      "constant": true,
      "inputs": [],
      "name": "isOperational",
      "outputs": [
        {
          "name": "",
          "type": "bool"
        }
      ],
      "payable": false,
      "stateMutability": "view",
      "type": "function"
    },
    {
      "constant": false,
      "inputs": [
        {
          "name": "mode",
          "type": "bool"
        }
      ],
      "name": "setOperatingStatus",
      "outputs": [],
      "payable": false,
      "stateMutability": "nonpayable",
      "type": "function"
    },
    {
      "constant": false,
      "inputs": [
        {
          "name": "contractAddress",
          "type": "address"
        }
      ],
      "name": "authorizeAppContract",
      "outputs": [],
      "payable": false,
      "stateMutability": "nonpayable",
      "type": "function"
    },
    {
      "constant": false,
      "inputs": [
        {
          "name": "airline",
          "type": "address"
        }
      ],
      "name": "isAirline",
      "outputs": [
        {
          "name": "",
          "type": "bool"
        }
      ],
      "payable": false,
      "stateMutability": "nonpayable",
      "type": "function"
    },
    {
      "constant": false,
      "inputs": [],
      "name": "getRegisteredAirlinesCount",
      "outputs": [
        {
          "name": "",
          "type": "uint256"
        }
      ],
      "payable": false,
      "stateMutability": "nonpayable",
      "type": "function"
    },
    {
      "constant": false,
      "inputs": [
        {
          "name": "airline",
          "type": "address"
        }
      ],
      "name": "getAirlineInfo",
      "outputs": [
        {
          "name": "isRegistered",
          "type": "bool"
        },
        {
          "name": "isFunded",
          "type": "bool"
        },
        {
          "name": "numOfApproved",
          "type": "uint256"
        }
      ],
      "payable": false,
      "stateMutability": "nonpayable",
      "type": "function"
    },
    {
      "constant": false,
      "inputs": [
        {
          "name": "airline",
          "type": "address"
        }
      ],
      "name": "getAirlineApprovalList",
      "outputs": [
        {
          "name": "",
          "type": "address[]"
        }
      ],
      "payable": false,
      "stateMutability": "nonpayable",
      "type": "function"
    },
    {
      "constant": false,
      "inputs": [
        {
          "name": "airline",
          "type": "address"
        },
        {
          "name": "flight",
          "type": "string"
        },
        {
          "name": "timestamp",
          "type": "uint256"
        },
        {
          "name": "passenger",
          "type": "address"
        }
      ],
      "name": "getPassengerInsuredAmount",
      "outputs": [
        {
          "name": "",
          "type": "uint256"
        }
      ],
      "payable": false,
      "stateMutability": "nonpayable",
      "type": "function"
    },
    {
      "constant": false,
      "inputs": [
        {
          "name": "airline",
          "type": "address"
        },
        {
          "name": "name",
          "type": "string"
        }
      ],
      "name": "registerAirline",
      "outputs": [],
      "payable": false,
      "stateMutability": "nonpayable",
      "type": "function"
    },
    {
      "constant": false,
      "inputs": [
        {
          "name": "airline",
          "type": "address"
        },
        {
          "name": "approver",
          "type": "address"
        }
      ],
      "name": "addToAirlineApprovalList",
      "outputs": [],
      "payable": false,
      "stateMutability": "nonpayable",
      "type": "function"
    },
    {
      "constant": false,
      "inputs": [
        {
          "name": "flight",
          "type": "string"
        },
        {
          "name": "airline",
          "type": "address"
        },
        {
          "name": "timestamp",
          "type": "uint256"
        }
      ],
      "name": "registerFlight",
      "outputs": [],
      "payable": false,
      "stateMutability": "nonpayable",
      "type": "function"
    },
    {
      "constant": false,
      "inputs": [
        {
          "name": "flightKey",
          "type": "bytes32"
        },
        {
          "name": "statusCode",
          "type": "uint8"
        }
      ],
      "name": "processFlightStatus",
      "outputs": [],
      "payable": false,
      "stateMutability": "nonpayable",
      "type": "function"
    },
    {
      "constant": false,
      "inputs": [
        {
          "name": "flightKey",
          "type": "bytes32"
        },
        {
          "name": "passenger",
          "type": "address"
        }
      ],
      "name": "buy",
      "outputs": [],
      "payable": true,
      "stateMutability": "payable",
      "type": "function"
    },
    {
      "constant": false,
      "inputs": [
        {
          "name": "passenger",
          "type": "address"
        }
      ],
      "name": "pay",
      "outputs": [],
      "payable": true,
      "stateMutability": "payable",
      "type": "function"
    },
    {
      "constant": false,
      "inputs": [
        {
          "name": "airline",
          "type": "address"
        }
      ],
      "name": "fund",
      "outputs": [],
      "payable": true,
      "stateMutability": "payable",
      "type": "function"
    },
    {
      "constant": true,
      "inputs": [],
      "name": "getAllAirlines",
      "outputs": [
        {
          "name": "",
          "type": "address[]"
        }
      ],
      "payable": false,
      "stateMutability": "view",
      "type": "function"
    },
    {
      "constant": true,
      "inputs": [],
      "name": "getAllFlights",
      "outputs": [
        {
          "name": "",
          "type": "bytes32[]"
        }
      ],
      "payable": false,
      "stateMutability": "view",
      "type": "function"
    }
  ],
  "bytecode": "0x60806040526001600460146101000a81548160ff02191690831515021790555060016005553480156200003157600080fd5b5060405160208062002a8d8339810180604052810190808051906020019092919050505033600460006101000a81548173ffffffffffffffffffffffffffffffffffffffff021916908373ffffffffffffffffffffffffffffffffffffffff1602179055506080604051908101604052806001151581526020016000151581526020016040805190810160405280600d81526020017f4669727374204169726c696e650000000000000000000000000000000000000081525081526020016000604051908082528060200260200182016040528015620001205781602001602082028038833980820191505090505b508152506000808373ffffffffffffffffffffffffffffffffffffffff1673ffffffffffffffffffffffffffffffffffffffff16815260200190815260200160002060008201518160000160006101000a81548160ff02191690831515021790555060208201518160000160016101000a81548160ff0219169083151502179055506040820151816001019080519060200190620001c092919062000258565b506060820151816002019080519060200190620001df929190620002df565b5090505060018190806001815401808255809150509060018203906000526020600020016000909192909190916101000a81548173ffffffffffffffffffffffffffffffffffffffff021916908373ffffffffffffffffffffffffffffffffffffffff16021790555050600160058190555050620003dc565b828054600181600116156101000203166002900490600052602060002090601f016020900481019282601f106200029b57805160ff1916838001178555620002cc565b82800160010185558215620002cc579182015b82811115620002cb578251825591602001919060010190620002ae565b5b509050620002db91906200036e565b5090565b8280548282559060005260206000209081019282156200035b579160200282015b828111156200035a5782518260006101000a81548173ffffffffffffffffffffffffffffffffffffffff021916908373ffffffffffffffffffffffffffffffffffffffff1602179055509160200191906001019062000300565b5b5090506200036a919062000396565b5090565b6200039391905b808211156200038f57600081600090555060010162000375565b5090565b90565b620003d991905b80821115620003d557600081816101000a81549073ffffffffffffffffffffffffffffffffffffffff0219169055506001016200039d565b5090565b90565b6126a180620003ec6000396000f30060806040526004361061013d576000357c0100000000000000000000000000000000000000000000000000000000900463ffffffff168062e5c7fa146101485780630c11dedd146101b55780630e248a11146101eb5780630f9429b714610246578063110466ed1461028457806320c5375e146102b357806323024408146103af5780633214e52b146103e5578063416847691461043c5780634c67cc3b1461050e5780634cc7dbee1461057a5780634d6c80fa146105e6578063538a0d9c1461067e578063720c7cbb146106e35780637754622e14610750578063939edc3514610793578063c049604a1461082c578063cd905dff14610870578063d5b9221b1461089f578063daa210eb146108fa578063e38d5b8614610943578063ee38a749146109a6578063f53aa2e214610a01578063f77890ea14610a2c575b61014632610a57565b005b34801561015457600080fd5b5061017360048036038101908080359060200190929190505050610ab4565b604051808273ffffffffffffffffffffffffffffffffffffffff1673ffffffffffffffffffffffffffffffffffffffff16815260200191505060405180910390f35b6101e9600480360381019080803573ffffffffffffffffffffffffffffffffffffffff169060200190929190505050610af2565b005b3480156101f757600080fd5b5061022c600480360381019080803573ffffffffffffffffffffffffffffffffffffffff169060200190929190505050610c7d565b604051808215151515815260200191505060405180910390f35b34801561025257600080fd5b506102826004803603810190808035600019169060200190929190803560ff169060200190929190505050610cd5565b005b34801561029057600080fd5b506102b1600480360381019080803515159060200190929190505050611019565b005b3480156102bf57600080fd5b506102e260048036038101908080356000191690602001909291905050506110fb565b60405180861515151581526020018560ff1660ff1681526020018481526020018373ffffffffffffffffffffffffffffffffffffffff1673ffffffffffffffffffffffffffffffffffffffff16815260200180602001828103825283818151815260200191508051906020019080838360005b83811015610370578082015181840152602081019050610355565b50505050905090810190601f16801561039d5780820380516001836020036101000a031916815260200191505b50965050505050505060405180910390f35b6103e3600480360381019080803573ffffffffffffffffffffffffffffffffffffffff169060200190929190505050610a57565b005b3480156103f157600080fd5b50610426600480360381019080803573ffffffffffffffffffffffffffffffffffffffff169060200190929190505050611203565b6040518082815260200191505060405180910390f35b34801561044857600080fd5b5061047d600480360381019080803573ffffffffffffffffffffffffffffffffffffffff16906020019092919050505061121b565b60405180841515151581526020018315151515815260200180602001828103825283818151815260200191508051906020019080838360005b838110156104d15780820151818401526020810190506104b6565b50505050905090810190601f1680156104fe5780820380516001836020036101000a031916815260200191505b5094505050505060405180910390f35b34801561051a57600080fd5b506105236112f7565b6040518080602001828103825283818151815260200191508051906020019060200280838360005b8381101561056657808201518184015260208101905061054b565b505050509050019250505060405180910390f35b34801561058657600080fd5b5061058f611353565b6040518080602001828103825283818151815260200191508051906020019060200280838360005b838110156105d25780820151818401526020810190506105b7565b505050509050019250505060405180910390f35b3480156105f257600080fd5b50610627600480360381019080803573ffffffffffffffffffffffffffffffffffffffff1690602001909291905050506113e1565b6040518080602001828103825283818151815260200191508051906020019060200280838360005b8381101561066a57808201518184015260208101905061064f565b505050509050019250505060405180910390f35b34801561068a57600080fd5b506106e1600480360381019080803590602001908201803590602001919091929391929390803573ffffffffffffffffffffffffffffffffffffffff169060200190929190803590602001909291905050506114b0565b005b3480156106ef57600080fd5b50610724600480360381019080803573ffffffffffffffffffffffffffffffffffffffff169060200190929190505050611768565b604051808415151515815260200183151515158152602001828152602001935050505060405180910390f35b34801561075c57600080fd5b50610791600480360381019080803573ffffffffffffffffffffffffffffffffffffffff16906020019092919050505061185d565b005b34801561079f57600080fd5b50610816600480360381019080803573ffffffffffffffffffffffffffffffffffffffff16906020019092919080359060200190820180359060200191909192939192939080359060200190929190803573ffffffffffffffffffffffffffffffffffffffff169060200190929190505050611a27565b6040518082815260200191505060405180910390f35b61086e6004803603810190808035600019169060200190929190803573ffffffffffffffffffffffffffffffffffffffff169060200190929190505050611ad1565b005b34801561087c57600080fd5b50610885611c7d565b604051808215151515815260200191505060405180910390f35b3480156108ab57600080fd5b506108e0600480360381019080803573ffffffffffffffffffffffffffffffffffffffff169060200190929190505050611c94565b604051808215151515815260200191505060405180910390f35b34801561090657600080fd5b5061092560048036038101908080359060200190929190505050611cb4565b60405180826000191660001916815260200191505060405180910390f35b34801561094f57600080fd5b506109a4600480360381019080803573ffffffffffffffffffffffffffffffffffffffff169060200190929190803573ffffffffffffffffffffffffffffffffffffffff169060200190929190505050611cd7565b005b3480156109b257600080fd5b506109ff600480360381019080803573ffffffffffffffffffffffffffffffffffffffff169060200190929190803590602001908201803590602001919091929391929390505050611d80565b005b348015610a0d57600080fd5b50610a16611ff3565b6040518082815260200191505060405180910390f35b348015610a3857600080fd5b50610a41611ff9565b6040518082815260200191505060405180910390f35b60016000808373ffffffffffffffffffffffffffffffffffffffff1673ffffffffffffffffffffffffffffffffffffffff16815260200190815260200160002060000160016101000a81548160ff02191690831515021790555050565b600181815481101515610ac357fe5b906000526020600020016000915054906101000a900473ffffffffffffffffffffffffffffffffffffffff1681565b600080600660008473ffffffffffffffffffffffffffffffffffffffff1673ffffffffffffffffffffffffffffffffffffffff1681526020019081526020016000205410151515610bab576040517f08c379a000000000000000000000000000000000000000000000000000000000815260040180806020018281038252601e8152602001807f546869732070617373656e67657220686173206e6f2062616c616e63652e000081525060200191505060405180910390fd5b600660008373ffffffffffffffffffffffffffffffffffffffff1673ffffffffffffffffffffffffffffffffffffffff1681526020019081526020016000205490506000600660008473ffffffffffffffffffffffffffffffffffffffff1673ffffffffffffffffffffffffffffffffffffffff168152602001908152602001600020819055508173ffffffffffffffffffffffffffffffffffffffff166108fc829081150290604051600060405180830381858888f19350505050158015610c78573d6000803e3d6000fd5b505050565b60008060008373ffffffffffffffffffffffffffffffffffffffff1673ffffffffffffffffffffffffffffffffffffffff16815260200190815260200160002060000160009054906101000a900460ff169050919050565b610cdd612431565b60026000846000191660001916815260200190815260200160002060c060405190810160405290816000820160009054906101000a900460ff161515151581526020016000820160019054906101000a900460ff1660ff1660ff168152602001600182015481526020016002820160009054906101000a900473ffffffffffffffffffffffffffffffffffffffff1673ffffffffffffffffffffffffffffffffffffffff1673ffffffffffffffffffffffffffffffffffffffff168152602001600382018054600181600116156101000203166002900480601f016020809104026020016040519081016040528092919081815260200182805460018160011615610100020316600290048015610e355780601f10610e0a57610100808354040283529160200191610e35565b820191906000526020600020905b815481529060010190602001808311610e1857829003601f168201915b5050505050815260200160048201805480602002602001604051908101604052809291908181526020018280548015610ec357602002820191906000526020600020905b8160009054906101000a900473ffffffffffffffffffffffffffffffffffffffff1673ffffffffffffffffffffffffffffffffffffffff1681526020019060010190808311610e79575b505050505081525050905080600001511515610f6d576040517f08c379a00000000000000000000000000000000000000000000000000000000081526004018080602001828103825260238152602001807f5468697320666c69676874206861736e2774206265656e20726567697374657281526020017f656421000000000000000000000000000000000000000000000000000000000081525060400191505060405180910390fd5b8160026000856000191660001916815260200190815260200160002060000160016101000a81548160ff021916908360ff1602179055507f21c01a346d9551e38a25aab68b0e786ab0a71aee67c32f60aa7a5c4713cbc03683838360a00151516040518084600019166000191681526020018360ff1660ff168152602001828152602001935050505060405180910390a160148260ff1614156110145761101383612003565b5b505050565b600460009054906101000a900473ffffffffffffffffffffffffffffffffffffffff1673ffffffffffffffffffffffffffffffffffffffff163373ffffffffffffffffffffffffffffffffffffffff161415156110de576040517f08c379a000000000000000000000000000000000000000000000000000000000815260040180806020018281038252601c8152602001807f43616c6c6572206973206e6f7420636f6e7472616374206f776e65720000000081525060200191505060405180910390fd5b80600460146101000a81548160ff02191690831515021790555050565b60026020528060005260406000206000915090508060000160009054906101000a900460ff16908060000160019054906101000a900460ff16908060010154908060020160009054906101000a900473ffffffffffffffffffffffffffffffffffffffff1690806003018054600181600116156101000203166002900480601f0160208091040260200160405190810160405280929190818152602001828054600181600116156101000203166002900480156111f95780601f106111ce576101008083540402835291602001916111f9565b820191906000526020600020905b8154815290600101906020018083116111dc57829003601f168201915b5050505050905085565b60066020528060005260406000206000915090505481565b60006020528060005260406000206000915090508060000160009054906101000a900460ff16908060000160019054906101000a900460ff1690806001018054600181600116156101000203166002900480601f0160208091040260200160405190810160405280929190818152602001828054600181600116156101000203166002900480156112ed5780601f106112c2576101008083540402835291602001916112ed565b820191906000526020600020905b8154815290600101906020018083116112d057829003601f168201915b5050505050905083565b6060600380548060200260200160405190810160405280929190818152602001828054801561134957602002820191906000526020600020905b81546000191681526020019060010190808311611331575b5050505050905090565b606060018054806020026020016040519081016040528092919081815260200182805480156113d757602002820191906000526020600020905b8160009054906101000a900473ffffffffffffffffffffffffffffffffffffffff1673ffffffffffffffffffffffffffffffffffffffff168152602001906001019080831161138d575b5050505050905090565b60606000808373ffffffffffffffffffffffffffffffffffffffff1673ffffffffffffffffffffffffffffffffffffffff1681526020019081526020016000206002018054806020026020016040519081016040528092919081815260200182805480156114a457602002820191906000526020600020905b8160009054906101000a900473ffffffffffffffffffffffffffffffffffffffff1673ffffffffffffffffffffffffffffffffffffffff168152602001906001019080831161145a575b50505050509050919050565b60006114ef8386868080601f016020809104026020016040519081016040528093929190818152602001838380828437820191505050505050846122a2565b90506000151560026000836000191660001916815260200190815260200160002060000160009054906101000a900460ff161515141515611598576040517f08c379a000000000000000000000000000000000000000000000000000000000815260040180806020018281038252601f8152602001807f5468697320666c6967687420686173206265656e20726567697374657265640081525060200191505060405180910390fd5b60c060405190810160405280600115158152602001600060ff1681526020018381526020018473ffffffffffffffffffffffffffffffffffffffff16815260200186868080601f016020809104026020016040519081016040528093929190818152602001838380828437820191505050505050815260200160006040519080825280602002602001820160405280156116415781602001602082028038833980820191505090505b5081525060026000836000191660001916815260200190815260200160002060008201518160000160006101000a81548160ff02191690831515021790555060208201518160000160016101000a81548160ff021916908360ff1602179055506040820151816001015560608201518160020160006101000a81548173ffffffffffffffffffffffffffffffffffffffff021916908373ffffffffffffffffffffffffffffffffffffffff160217905550608082015181600301908051906020019061170e929190612483565b5060a082015181600401908051906020019061172b929190612503565b5090505060038190806001815401808255809150509060018203906000526020600020016000909192909190915090600019169055505050505050565b60008060008060008573ffffffffffffffffffffffffffffffffffffffff1673ffffffffffffffffffffffffffffffffffffffff16815260200190815260200160002060000160009054906101000a900460ff1692506000808573ffffffffffffffffffffffffffffffffffffffff1673ffffffffffffffffffffffffffffffffffffffff16815260200190815260200160002060000160019054906101000a900460ff1691506000808573ffffffffffffffffffffffffffffffffffffffff1673ffffffffffffffffffffffffffffffffffffffff1681526020019081526020016000206002018054905090509193909250565b600460149054906101000a900460ff161515611907576040517f08c379a00000000000000000000000000000000000000000000000000000000081526004018080602001828103825260258152602001807f436f6e74726163742069732063757272656e746c79206e6f74206f706572617481526020017f696f6e616c00000000000000000000000000000000000000000000000000000081525060400191505060405180910390fd5b600460009054906101000a900473ffffffffffffffffffffffffffffffffffffffff1673ffffffffffffffffffffffffffffffffffffffff163373ffffffffffffffffffffffffffffffffffffffff161415156119cc576040517f08c379a000000000000000000000000000000000000000000000000000000000815260040180806020018281038252601c8152602001807f43616c6c6572206973206e6f7420636f6e7472616374206f776e65720000000081525060200191505060405180910390fd5b6001600760008373ffffffffffffffffffffffffffffffffffffffff1673ffffffffffffffffffffffffffffffffffffffff16815260200190815260200160002060006101000a81548160ff02191690831515021790555050565b600080611a678787878080601f016020809104026020016040519081016040528093929190818152602001838380828437820191505050505050866122a2565b905060026000826000191660001916815260200190815260200160002060050160008473ffffffffffffffffffffffffffffffffffffffff1673ffffffffffffffffffffffffffffffffffffffff1681526020019081526020016000205491505095945050505050565b60026000836000191660001916815260200190815260200160002060000160009054906101000a900460ff161515611b97576040517f08c379a00000000000000000000000000000000000000000000000000000000081526004018080602001828103825260248152602001807f546869732066696c69676874206861736e2774206265656e207265676973746581526020017f726564210000000000000000000000000000000000000000000000000000000081525060400191505060405180910390fd5b3460026000846000191660001916815260200190815260200160002060050160008373ffffffffffffffffffffffffffffffffffffffff1673ffffffffffffffffffffffffffffffffffffffff168152602001908152602001600020819055506002600083600019166000191681526020019081526020016000206004018190806001815401808255809150509060018203906000526020600020016000909192909190916101000a81548173ffffffffffffffffffffffffffffffffffffffff021916908373ffffffffffffffffffffffffffffffffffffffff160217905550505050565b6000600460149054906101000a900460ff16905090565b60076020528060005260406000206000915054906101000a900460ff1681565b600381815481101515611cc357fe5b906000526020600020016000915090505481565b6000808373ffffffffffffffffffffffffffffffffffffffff1673ffffffffffffffffffffffffffffffffffffffff1681526020019081526020016000206002018190806001815401808255809150509060018203906000526020600020016000909192909190916101000a81548173ffffffffffffffffffffffffffffffffffffffff021916908373ffffffffffffffffffffffffffffffffffffffff160217905550505050565b600460149054906101000a900460ff161515611e2a576040517f08c379a00000000000000000000000000000000000000000000000000000000081526004018080602001828103825260258152602001807f436f6e74726163742069732063757272656e746c79206e6f74206f706572617481526020017f696f6e616c00000000000000000000000000000000000000000000000000000081525060400191505060405180910390fd5b82600073ffffffffffffffffffffffffffffffffffffffff168173ffffffffffffffffffffffffffffffffffffffff1614151515611ed0576040517f08c379a00000000000000000000000000000000000000000000000000000000081526004018080602001828103825260198152602001807f5468652061646472657373206973206e6f742076616c6964210000000000000081525060200191505060405180910390fd5b60016000808673ffffffffffffffffffffffffffffffffffffffff1673ffffffffffffffffffffffffffffffffffffffff16815260200190815260200160002060000160006101000a81548160ff02191690831515021790555082826000808773ffffffffffffffffffffffffffffffffffffffff1673ffffffffffffffffffffffffffffffffffffffff1681526020019081526020016000206001019190611f7a92919061258d565b5060016005540160058190555060018490806001815401808255809150509060018203906000526020600020016000909192909190916101000a81548173ffffffffffffffffffffffffffffffffffffffff021916908373ffffffffffffffffffffffffffffffffffffffff1602179055505050505050565b60055481565b6000600554905090565b60008060008060026000866000191660001916815260200190815260200160002093508360000160009054906101000a900460ff1615156120d2576040517f08c379a00000000000000000000000000000000000000000000000000000000081526004018080602001828103825260238152602001807f5468697320666c69676874206861736e2774206265656e20726567697374657281526020017f656421000000000000000000000000000000000000000000000000000000000081525060400191505060405180910390fd5b600092505b836004018054905083101561229b5783600401838154811015156120f757fe5b9060005260206000200160009054906101000a900473ffffffffffffffffffffffffffffffffffffffff16915061218c600261217e60038760050160008773ffffffffffffffffffffffffffffffffffffffff1673ffffffffffffffffffffffffffffffffffffffff168152602001908152602001600020546123c790919063ffffffff16565b6123ff90919063ffffffff16565b90507f9ca076da5b160bab7720012b0560535eb58b48f525eb8689a874d74cf24976dd8282604051808373ffffffffffffffffffffffffffffffffffffffff1673ffffffffffffffffffffffffffffffffffffffff1681526020018281526020019250505060405180910390a161224b81600660008573ffffffffffffffffffffffffffffffffffffffff1673ffffffffffffffffffffffffffffffffffffffff1681526020019081526020016000205461241590919063ffffffff16565b600660008473ffffffffffffffffffffffffffffffffffffffff1673ffffffffffffffffffffffffffffffffffffffff1681526020019081526020016000208190555082806001019350506120d7565b5050505050565b6000838383604051602001808473ffffffffffffffffffffffffffffffffffffffff1673ffffffffffffffffffffffffffffffffffffffff166c0100000000000000000000000002815260140183805190602001908083835b60208310151561232057805182526020820191506020810190506020830392506122fb565b6001836020036101000a03801982511681845116808217855250505050505090500182815260200193505050506040516020818303038152906040526040518082805190602001908083835b602083101515612391578051825260208201915060208101905060208303925061236c565b6001836020036101000a038019825116818451168082178552505050505050905001915050604051809103902090509392505050565b6000808314156123da57600090506123f9565b81830290508183828115156123eb57fe5b041415156123f557fe5b8090505b92915050565b6000818381151561240c57fe5b04905092915050565b6000818301905082811015151561242857fe5b80905092915050565b60c060405190810160405280600015158152602001600060ff16815260200160008152602001600073ffffffffffffffffffffffffffffffffffffffff16815260200160608152602001606081525090565b828054600181600116156101000203166002900490600052602060002090601f016020900481019282601f106124c457805160ff19168380011785556124f2565b828001600101855582156124f2579182015b828111156124f15782518255916020019190600101906124d6565b5b5090506124ff919061260d565b5090565b82805482825590600052602060002090810192821561257c579160200282015b8281111561257b5782518260006101000a81548173ffffffffffffffffffffffffffffffffffffffff021916908373ffffffffffffffffffffffffffffffffffffffff16021790555091602001919060010190612523565b5b5090506125899190612632565b5090565b828054600181600116156101000203166002900490600052602060002090601f016020900481019282601f106125ce57803560ff19168380011785556125fc565b828001600101855582156125fc579182015b828111156125fb5782358255916020019190600101906125e0565b5b509050612609919061260d565b5090565b61262f91905b8082111561262b576000816000905550600101612613565b5090565b90565b61267291905b8082111561266e57600081816101000a81549073ffffffffffffffffffffffffffffffffffffffff021916905550600101612638565b5090565b905600a165627a7a72305820e4588838a8e93843a605c6947d30887ed83bd2d5314c93f2b837854e4cd1baf60029",
  "source": "pragma solidity >=0.4.25;\n\nimport \"../node_modules/openzeppelin-solidity/contracts/math/SafeMath.sol\";\n\ncontract FlightSuretyData {\n    using SafeMath for uint256;\n\n    /********************************************************************************************/\n    /*                                       DATA VARIABLES                                     */\n    /********************************************************************************************/\n\n    // Flight status codees\n    uint8 private constant STATUS_CODE_UNKNOWN = 0;\n    uint8 private constant STATUS_CODE_ON_TIME = 10;\n    uint8 private constant STATUS_CODE_LATE_AIRLINE = 20;\n    uint8 private constant STATUS_CODE_LATE_WEATHER = 30;\n    uint8 private constant STATUS_CODE_LATE_TECHNICAL = 40;\n    uint8 private constant STATUS_CODE_LATE_OTHER = 50;\n\n    struct AirlineInfo {\n        bool isRegistered;\n        bool isFunded;\n        string name;\n        address[] approvedBy;\n    }\n    mapping(address => AirlineInfo) public airlines;\n    address[] public airline_list;\n\n    struct Flight {\n        bool isRegistered;\n        uint8 statusCode;\n        uint256 updatedTimestamp;        \n        address airline;\n        string flight;\n        address[] insuredPassengers;\n        mapping(address => uint256) passengersPaymentAmount;\n    }\n    mapping(bytes32 => Flight) public flights;\n    bytes32[] public flight_list;\n\n    address private contractOwner;                                      // Account used to deploy contract\n    bool private operational = true;                                    // Blocks all state changes throughout the contract if false\n    uint256 public registeredAirlinesCount = 1; // TODO: private\n\n    mapping(address => uint256) public passengersBalances;\n    mapping(address => bool) public authorizedContracts;\n    //mapping(address => uint256) public insurees;\n    /********************************************************************************************/\n    /*                                       EVENT DEFINITIONS                                  */\n    /********************************************************************************************/\n    event FlightStatusUpdated(bytes32 flightKey, uint8 status, uint256 passengersCount);\n    event AmountRefundedToPassengerBalance(address passenger, uint256 refundAmount);\n    \n    \n    /**\n    * @dev Constructor\n    *      The deploying account becomes contractOwner\n    */\n    constructor\n                                (\n                                    address firstAirlineAddress\n                                ) \n                                public \n    {\n        contractOwner = msg.sender;\n        // TODO: name\n        airlines[firstAirlineAddress] = AirlineInfo({\n            isRegistered: true,\n            isFunded: false,\n            name: 'First Airline',\n            approvedBy: new address[](0)\n        });\n        airline_list.push(firstAirlineAddress);\n        registeredAirlinesCount = 1;\n    }\n\n    /********************************************************************************************/\n    /*                                       FUNCTION MODIFIERS                                 */\n    /********************************************************************************************/\n\n    // Modifiers help avoid duplication of code. They are typically used to validate something\n    // before a function is allowed to be executed.\n\n    /**\n    * @dev Modifier that requires the \"operational\" boolean variable to be \"true\"\n    *      This is used on all state changing functions to pause the contract in \n    *      the event there is an issue that needs to be fixed\n    */\n    modifier requireIsOperational() \n    {\n        require(operational, \"Contract is currently not operational\");\n        _;  // All modifiers require an \"_\" which indicates where the function body will be added\n    }\n\n    /**\n    * @dev Modifier that requires the \"ContractOwner\" account to be the function caller\n    */\n    modifier requireContractOwner()\n    {\n        require(msg.sender == contractOwner, \"Caller is not contract owner\");\n        _;\n    }\n\n    // address0\n    modifier requireValidAddress(address a)\n    {\n        require(a!=address(0), \"The address is not valid!\");\n        _;\n    }\n\n\n    //TODO: apcontractdatacontract\n    modifier requireAuthorizedCaller() {\n        require(authorizedContracts[msg.sender] == true, \"The app contract is not authorized!\");\n        _;\n    }\n\n    /********************************************************************************************/\n    /*                                       UTILITY FUNCTIONS                                  */\n    /********************************************************************************************/\n\n    /**\n    * @dev Get operating status of contract\n    *\n    * @return A bool that is the current operating status\n    */      \n    function isOperational() \n                            public \n                            view \n                            returns(bool) \n    {\n        return operational;\n    }\n\n\n    /**\n    * @dev Sets contract operations on/off\n    *\n    * When operational mode is disabled, all write transactions except for this one will fail\n    */    \n    function setOperatingStatus\n                            (\n                                bool mode\n                            ) \n                            external\n                            requireContractOwner \n    {\n        operational = mode;\n    }\n\n    // modifierappcontractdatacontract\n    function authorizeAppContract(address contractAddress)\n                                external \n                                requireIsOperational\n                                requireContractOwner\n    {\n        authorizedContracts[contractAddress] = true;\n    }\n\n    // airline\n    function isAirline(address airline) external returns(bool)\n    {\n        return airlines[airline].isRegistered;\n    } \n\n    // TODO: airline\n    function getRegisteredAirlinesCount() external returns(uint256)\n    {\n        return registeredAirlinesCount;\n    }\n\n    // TODO: airline\n    function getAirlineInfo(address airline) external returns(bool isRegistered, bool isFunded, uint256 numOfApproved)\n    {\n        isRegistered = airlines[airline].isRegistered;\n        isFunded = airlines[airline].isFunded;\n        numOfApproved = airlines[airline].approvedBy.length;\n    }\n\n    // TODO: airlineairlinemsg.sender\n    function getAirlineApprovalList(address airline) external returns(address[]) \n    {\n        return airlines[airline].approvedBy;\n    }\n\n    // TODO: passenger\n    function getPassengerInsuredAmount(address airline, string flight, uint256 timestamp, address passenger) external returns(uint256)\n    {\n        bytes32 key = getFlightKey(airline, flight, timestamp);\n        return flights[key].passengersPaymentAmount[passenger];\n    }\n\n    /********************************************************************************************/\n    /*                                     SMART CONTRACT FUNCTIONS                             */\n    /********************************************************************************************/\n\n   /**\n    * @dev Add an airline to the registration queue\n    *      Can only be called from FlightSuretyApp contract\n    *\n    */   \n    function registerAirline\n                            (   \n                                address airline,\n                                string name\n                            )\n                            external\n                            requireIsOperational\n                            requireValidAddress(airline)\n    {\n        airlines[airline].isRegistered = true;\n        airlines[airline].name = name;\n        registeredAirlinesCount = registeredAirlinesCount + 1;\n        airline_list.push(airline);\n    }\n\n\n    // TODO: airlineapprovalairline\n    function addToAirlineApprovalList(address airline, address approver) external\n    {\n        airlines[airline].approvedBy.push(approver);\n    }\n\n    function registerFlight (string flight, address airline, uint256 timestamp) external\n    {\n        // TODO: \n        // ****** getFlightKeykey ****** \n        bytes32 flightKey = getFlightKey(airline, flight, timestamp);\n        // ******  ******\n        require(flights[flightKey].isRegistered == false, \"This flight has been registered\");\n       // ****** keyflight ******\n       flights[flightKey] = Flight({\n            isRegistered: true,\n            statusCode: STATUS_CODE_UNKNOWN,\n            updatedTimestamp: timestamp,\n            airline: airline,\n            flight: flight,\n            insuredPassengers: new address[](0)\n       });\n       flight_list.push(flightKey);\n    }\n    // TODO: flight\n    function processFlightStatus(bytes32 flightKey, uint8 statusCode) external \n    {\n        // ******* flightKeyflight *******\n        Flight memory flight = flights[flightKey];\n        // ****** flight ******       \n        require(flight.isRegistered, \"This flight hasn't been registered!\");\n        // ****** statusCode ******   \n        flights[flightKey].statusCode = statusCode;\n        // ****** emitevent ****** \n        emit FlightStatusUpdated(flightKey, statusCode, flight.insuredPassengers.length);\n        // ****** statusCode20airline latecreditInsurees ****** \n        if (statusCode == 20) {\n            creditInsurees(flightKey);\n        }\n    }\n\n   /**\n    * @dev Buy insurance for a flight\n    *\n    */   \n    function buy\n                            (\n                                bytes32 flightKey,          \n                                address passenger                   \n                            )   \n                            external\n                            payable\n    {\n        require(flights[flightKey].isRegistered, \"This filight hasn't been registered!\");\n\n        flights[flightKey].passengersPaymentAmount[passenger] = uint256(msg.value);\n        flights[flightKey].insuredPassengers.push(passenger);\n    }\n\n    /**\n     *  @dev Credits payouts to insurees\n    */\n    function creditInsurees\n                                (\n                                    bytes32 flightKey\n                                )\n                                internal\n    {\n        Flight storage flight = flights[flightKey];\n        require(flight.isRegistered, \"This flight hasn't been registered!\");\n\n        for(uint i=0; i<flight.insuredPassengers.length; i++) {\n            address passenger = flight.insuredPassengers[i];\n            uint256 refundAmount = flight.passengersPaymentAmount[passenger].mul(3).div(2);\n            emit AmountRefundedToPassengerBalance(passenger, refundAmount);\n            passengersBalances[passenger] = passengersBalances[passenger].add(refundAmount);\n        }\n    }\n    \n\n    /**\n     *  @dev Transfers eligible payout funds to insuree\n     *\n    */\n    function pay\n                            (\n                                address passenger\n                            )\n                            external\n                            payable\n    {\n        require(passengersBalances[passenger]>=0, \"This passenger has no balance.\");\n\n        uint256 value = passengersBalances[passenger];\n        passengersBalances[passenger] = 0;\n        passenger.transfer(value);\n    }\n\n   /**\n    * @dev Initial funding for the insurance. Unless there are too many delayed flights\n    *      resulting in insurance payouts, the contract should be self-sustaining\n    *\n    */   \n    function fund\n                            (   \n                                address airline\n                            )\n                            public\n                            payable\n    {\n        airlines[airline].isFunded = true;\n    }\n\n    function getFlightKey\n                        (\n                            address airline,\n                            string memory flight,\n                            uint256 timestamp\n                        )\n                        pure\n                        internal\n                        returns(bytes32) \n    {\n        return keccak256(abi.encodePacked(airline, flight, timestamp));\n    }\n\n    function getAllAirlines() external view returns(address[]) {\n        return airline_list;\n    }\n\n    function getAllFlights() external view returns(bytes32[]) {\n        return flight_list;\n    }\n    /**\n    * @dev Fallback function for funding smart contract.\n    *\n    */\n    function() \n                            external \n                            payable \n    {\n        //TODO: \n        fund(tx.origin);\n    }\n\n\n}\n\n",
  "sourcePath": "/Users/hong/OneDrive - shanghaitech.edu.cn/projects/blockchainND/lesson6/project/FlightSurety/contracts/FlightSuretyData.sol",
  "compiler": {
    "name": "solc",
    "version": "0.4.26+commit.4563c3fc.Emscripten.clang"
  },
  "schemaVersion": "3.0.9",
  "updatedAt": "2019-08-13T04:15:04.423Z",
  "devdoc": {
    "methods": {
      "buy(bytes32,address)": {
        "details": "Buy insurance for a flight    "
      },
      "fund(address)": {
        "details": "Initial funding for the insurance. Unless there are too many delayed flights     resulting in insurance payouts, the contract should be self-sustaining    "
      },
      "isOperational()": {
        "details": "Get operating status of contract",
        "return": "A bool that is the current operating status"
      },
      "pay(address)": {
        "details": "Transfers eligible payout funds to insuree    "
      },
      "registerAirline(address,string)": {
        "details": "Add an airline to the registration queue     Can only be called from FlightSuretyApp contract    "
      },
      "setOperatingStatus(bool)": {
        "details": "Sets contract operations on/off    * When operational mode is disabled, all write transactions except for this one will fail"
      }
    }
  },
  "userdoc": {
    "methods": {}
  }
}