{
  "contractName": "FlightSuretyData",
  "abi": [
    {
      "constant": true,
      "inputs": [
        {
          "name": "",
          "type": "uint256"
        }
      ],
      "name": "airline_list",
      "outputs": [
        {
          "name": "",
          "type": "address"
        }
      ],
      "payable": false,
      "stateMutability": "view",
      "type": "function"
    },
    {
      "constant": true,
      "inputs": [
        {
          "name": "",
          "type": "bytes32"
        }
      ],
      "name": "flights",
      "outputs": [
        {
          "name": "isRegistered",
          "type": "bool"
        },
        {
          "name": "statusCode",
          "type": "uint8"
        },
        {
          "name": "updatedTimestamp",
          "type": "uint256"
        },
        {
          "name": "airline",
          "type": "address"
        },
        {
          "name": "flight",
          "type": "string"
        }
      ],
      "payable": false,
      "stateMutability": "view",
      "type": "function"
    },
    {
      "constant": true,
      "inputs": [
        {
          "name": "",
          "type": "address"
        }
      ],
      "name": "passengersBalances",
      "outputs": [
        {
          "name": "",
          "type": "uint256"
        }
      ],
      "payable": false,
      "stateMutability": "view",
      "type": "function"
    },
    {
      "constant": true,
      "inputs": [
        {
          "name": "",
          "type": "address"
        }
      ],
      "name": "airlines",
      "outputs": [
        {
          "name": "isRegistered",
          "type": "bool"
        },
        {
          "name": "isFunded",
          "type": "bool"
        },
        {
          "name": "name",
          "type": "string"
        }
      ],
      "payable": false,
      "stateMutability": "view",
      "type": "function"
    },
    {
      "constant": true,
      "inputs": [
        {
          "name": "",
          "type": "address"
        }
      ],
      "name": "authorizedContracts",
      "outputs": [
        {
          "name": "",
          "type": "bool"
        }
      ],
      "payable": false,
      "stateMutability": "view",
      "type": "function"
    },
    {
      "constant": true,
      "inputs": [
        {
          "name": "",
          "type": "uint256"
        }
      ],
      "name": "flight_list",
      "outputs": [
        {
          "name": "",
          "type": "bytes32"
        }
      ],
      "payable": false,
      "stateMutability": "view",
      "type": "function"
    },
    {
      "constant": true,
      "inputs": [],
      "name": "registeredAirlinesCount",
      "outputs": [
        {
          "name": "",
          "type": "uint256"
        }
      ],
      "payable": false,
      "stateMutability": "view",
      "type": "function"
    },
    {
      "inputs": [
        {
          "name": "firstAirlineAddress",
          "type": "address"
        }
      ],
      "payable": false,
      "stateMutability": "nonpayable",
      "type": "constructor"
    },
    {
      "payable": true,
      "stateMutability": "payable",
      "type": "fallback"
    },
    {
      "anonymous": false,
      "inputs": [
        {
          "indexed": false,
          "name": "flightKey",
          "type": "bytes32"
        },
        {
          "indexed": false,
          "name": "status",
          "type": "uint8"
        },
        {
          "indexed": false,
          "name": "passengersCount",
          "type": "uint256"
        }
      ],
      "name": "FlightStatusUpdated",
      "type": "event"
    },
    {
      "anonymous": false,
      "inputs": [
        {
          "indexed": false,
          "name": "passenger",
          "type": "address"
        },
        {
          "indexed": false,
          "name": "refundAmount",
          "type": "uint256"
        }
      ],
      "name": "AmountRefundedToPassengerBalance",
      "type": "event"
    },
    {
      "constant": true,
      "inputs": [],
      "name": "isOperational",
      "outputs": [
        {
          "name": "",
          "type": "bool"
        }
      ],
      "payable": false,
      "stateMutability": "view",
      "type": "function"
    },
    {
      "constant": false,
      "inputs": [
        {
          "name": "mode",
          "type": "bool"
        }
      ],
      "name": "setOperatingStatus",
      "outputs": [],
      "payable": false,
      "stateMutability": "nonpayable",
      "type": "function"
    },
    {
      "constant": false,
      "inputs": [
        {
          "name": "contractAddress",
          "type": "address"
        }
      ],
      "name": "authorizeAppContract",
      "outputs": [],
      "payable": false,
      "stateMutability": "nonpayable",
      "type": "function"
    },
    {
      "constant": false,
      "inputs": [
        {
          "name": "airline",
          "type": "address"
        }
      ],
      "name": "isAirline",
      "outputs": [
        {
          "name": "",
          "type": "bool"
        }
      ],
      "payable": false,
      "stateMutability": "nonpayable",
      "type": "function"
    },
    {
      "constant": false,
      "inputs": [],
      "name": "getRegisteredAirlinesCount",
      "outputs": [
        {
          "name": "",
          "type": "uint256"
        }
      ],
      "payable": false,
      "stateMutability": "nonpayable",
      "type": "function"
    },
    {
      "constant": false,
      "inputs": [
        {
          "name": "airline",
          "type": "address"
        }
      ],
      "name": "getAirlineInfo",
      "outputs": [
        {
          "name": "isRegistered",
          "type": "bool"
        },
        {
          "name": "isFunded",
          "type": "bool"
        },
        {
          "name": "numOfApproved",
          "type": "uint256"
        }
      ],
      "payable": false,
      "stateMutability": "nonpayable",
      "type": "function"
    },
    {
      "constant": false,
      "inputs": [
        {
          "name": "airline",
          "type": "address"
        }
      ],
      "name": "getAirlineApprovalList",
      "outputs": [
        {
          "name": "",
          "type": "address[]"
        }
      ],
      "payable": false,
      "stateMutability": "nonpayable",
      "type": "function"
    },
    {
      "constant": false,
      "inputs": [
        {
          "name": "airline",
          "type": "address"
        },
        {
          "name": "flight",
          "type": "string"
        },
        {
          "name": "timestamp",
          "type": "uint256"
        },
        {
          "name": "passenger",
          "type": "address"
        }
      ],
      "name": "getPassengerInsuredAmount",
      "outputs": [
        {
          "name": "",
          "type": "uint256"
        }
      ],
      "payable": false,
      "stateMutability": "nonpayable",
      "type": "function"
    },
    {
      "constant": false,
      "inputs": [
        {
          "name": "flightKey",
          "type": "bytes32"
        }
      ],
      "name": "getFlightKeyStatus",
      "outputs": [
        {
          "name": "",
          "type": "uint8"
        }
      ],
      "payable": false,
      "stateMutability": "nonpayable",
      "type": "function"
    },
    {
      "constant": false,
      "inputs": [
        {
          "name": "airline",
          "type": "address"
        },
        {
          "name": "name",
          "type": "string"
        }
      ],
      "name": "registerAirline",
      "outputs": [],
      "payable": false,
      "stateMutability": "nonpayable",
      "type": "function"
    },
    {
      "constant": false,
      "inputs": [
        {
          "name": "airline",
          "type": "address"
        },
        {
          "name": "approver",
          "type": "address"
        }
      ],
      "name": "addToAirlineApprovalList",
      "outputs": [],
      "payable": false,
      "stateMutability": "nonpayable",
      "type": "function"
    },
    {
      "constant": false,
      "inputs": [
        {
          "name": "flight",
          "type": "string"
        },
        {
          "name": "airline",
          "type": "address"
        },
        {
          "name": "timestamp",
          "type": "uint256"
        }
      ],
      "name": "registerFlight",
      "outputs": [],
      "payable": false,
      "stateMutability": "nonpayable",
      "type": "function"
    },
    {
      "constant": false,
      "inputs": [
        {
          "name": "flightKey",
          "type": "bytes32"
        },
        {
          "name": "statusCode",
          "type": "uint8"
        }
      ],
      "name": "processFlightStatus",
      "outputs": [],
      "payable": false,
      "stateMutability": "nonpayable",
      "type": "function"
    },
    {
      "constant": false,
      "inputs": [
        {
          "name": "flightKey",
          "type": "bytes32"
        },
        {
          "name": "passenger",
          "type": "address"
        },
        {
          "name": "price",
          "type": "uint256"
        }
      ],
      "name": "buy",
      "outputs": [],
      "payable": false,
      "stateMutability": "nonpayable",
      "type": "function"
    },
    {
      "constant": false,
      "inputs": [
        {
          "name": "passenger",
          "type": "address"
        }
      ],
      "name": "pay",
      "outputs": [],
      "payable": false,
      "stateMutability": "nonpayable",
      "type": "function"
    },
    {
      "constant": false,
      "inputs": [
        {
          "name": "airline",
          "type": "address"
        }
      ],
      "name": "fund",
      "outputs": [],
      "payable": true,
      "stateMutability": "payable",
      "type": "function"
    },
    {
      "constant": true,
      "inputs": [],
      "name": "getAllAirlines",
      "outputs": [
        {
          "name": "",
          "type": "address[]"
        }
      ],
      "payable": false,
      "stateMutability": "view",
      "type": "function"
    },
    {
      "constant": true,
      "inputs": [],
      "name": "getAllFlights",
      "outputs": [
        {
          "name": "",
          "type": "bytes32[]"
        }
      ],
      "payable": false,
      "stateMutability": "view",
      "type": "function"
    }
  ],
  "bytecode": "0x60806040526001600460146101000a81548160ff02191690831515021790555060016005553480156200003157600080fd5b5060405160208062002cc68339810180604052810190808051906020019092919050505033600460006101000a81548173ffffffffffffffffffffffffffffffffffffffff021916908373ffffffffffffffffffffffffffffffffffffffff1602179055506080604051908101604052806001151581526020016000151581526020016040805190810160405280600d81526020017f4669727374204169726c696e650000000000000000000000000000000000000081525081526020016000604051908082528060200260200182016040528015620001205781602001602082028038833980820191505090505b508152506000808373ffffffffffffffffffffffffffffffffffffffff1673ffffffffffffffffffffffffffffffffffffffff16815260200190815260200160002060008201518160000160006101000a81548160ff02191690831515021790555060208201518160000160016101000a81548160ff0219169083151502179055506040820151816001019080519060200190620001c092919062000258565b506060820151816002019080519060200190620001df929190620002df565b5090505060018190806001815401808255809150509060018203906000526020600020016000909192909190916101000a81548173ffffffffffffffffffffffffffffffffffffffff021916908373ffffffffffffffffffffffffffffffffffffffff16021790555050600160058190555050620003dc565b828054600181600116156101000203166002900490600052602060002090601f016020900481019282601f106200029b57805160ff1916838001178555620002cc565b82800160010185558215620002cc579182015b82811115620002cb578251825591602001919060010190620002ae565b5b509050620002db91906200036e565b5090565b8280548282559060005260206000209081019282156200035b579160200282015b828111156200035a5782518260006101000a81548173ffffffffffffffffffffffffffffffffffffffff021916908373ffffffffffffffffffffffffffffffffffffffff1602179055509160200191906001019062000300565b5b5090506200036a919062000396565b5090565b6200039391905b808211156200038f57600081600090555060010162000375565b5090565b90565b620003d991905b80821115620003d557600081816101000a81549073ffffffffffffffffffffffffffffffffffffffff0219169055506001016200039d565b5090565b90565b6128da80620003ec6000396000f300608060405260043610610148576000357c0100000000000000000000000000000000000000000000000000000000900463ffffffff168062e5c7fa146101535780630c11dedd146101c05780630e248a11146102035780630f9429b71461025e578063110466ed1461029c57806320c5375e146102cb57806323024408146103c75780633214e52b146103fd57806341684769146104545780634c67cc3b146105265780634cc7dbee146105925780634d6c80fa146105fe578063538a0d9c14610696578063720c7cbb146106fb5780637754622e1461076857806378133ffd146107ab578063939edc3514610806578063cb19794a1461089f578063cd905dff146108ea578063d5b9221b14610919578063daa210eb14610974578063e38d5b86146109bd578063ee38a74914610a20578063f53aa2e214610a7b578063f77890ea14610aa6575b61015132610ad1565b005b34801561015f57600080fd5b5061017e60048036038101908080359060200190929190505050610b2e565b604051808273ffffffffffffffffffffffffffffffffffffffff1673ffffffffffffffffffffffffffffffffffffffff16815260200191505060405180910390f35b3480156101cc57600080fd5b50610201600480360381019080803573ffffffffffffffffffffffffffffffffffffffff169060200190929190505050610b6c565b005b34801561020f57600080fd5b50610244600480360381019080803573ffffffffffffffffffffffffffffffffffffffff169060200190929190505050610cf6565b604051808215151515815260200191505060405180910390f35b34801561026a57600080fd5b5061029a6004803603810190808035600019169060200190929190803560ff169060200190929190505050610d4e565b005b3480156102a857600080fd5b506102c9600480360381019080803515159060200190929190505050611092565b005b3480156102d757600080fd5b506102fa6004803603810190808035600019169060200190929190505050611174565b60405180861515151581526020018560ff1660ff1681526020018481526020018373ffffffffffffffffffffffffffffffffffffffff1673ffffffffffffffffffffffffffffffffffffffff16815260200180602001828103825283818151815260200191508051906020019080838360005b8381101561038857808201518184015260208101905061036d565b50505050905090810190601f1680156103b55780820380516001836020036101000a031916815260200191505b50965050505050505060405180910390f35b6103fb600480360381019080803573ffffffffffffffffffffffffffffffffffffffff169060200190929190505050610ad1565b005b34801561040957600080fd5b5061043e600480360381019080803573ffffffffffffffffffffffffffffffffffffffff16906020019092919050505061127c565b6040518082815260200191505060405180910390f35b34801561046057600080fd5b50610495600480360381019080803573ffffffffffffffffffffffffffffffffffffffff169060200190929190505050611294565b60405180841515151581526020018315151515815260200180602001828103825283818151815260200191508051906020019080838360005b838110156104e95780820151818401526020810190506104ce565b50505050905090810190601f1680156105165780820380516001836020036101000a031916815260200191505b5094505050505060405180910390f35b34801561053257600080fd5b5061053b611370565b6040518080602001828103825283818151815260200191508051906020019060200280838360005b8381101561057e578082015181840152602081019050610563565b505050509050019250505060405180910390f35b34801561059e57600080fd5b506105a76113cc565b6040518080602001828103825283818151815260200191508051906020019060200280838360005b838110156105ea5780820151818401526020810190506105cf565b505050509050019250505060405180910390f35b34801561060a57600080fd5b5061063f600480360381019080803573ffffffffffffffffffffffffffffffffffffffff16906020019092919050505061145a565b6040518080602001828103825283818151815260200191508051906020019060200280838360005b83811015610682578082015181840152602081019050610667565b505050509050019250505060405180910390f35b3480156106a257600080fd5b506106f9600480360381019080803590602001908201803590602001919091929391929390803573ffffffffffffffffffffffffffffffffffffffff16906020019092919080359060200190929190505050611529565b005b34801561070757600080fd5b5061073c600480360381019080803573ffffffffffffffffffffffffffffffffffffffff1690602001909291905050506118a6565b604051808415151515815260200183151515158152602001828152602001935050505060405180910390f35b34801561077457600080fd5b506107a9600480360381019080803573ffffffffffffffffffffffffffffffffffffffff16906020019092919050505061199b565b005b3480156107b757600080fd5b506108046004803603810190808035600019169060200190929190803573ffffffffffffffffffffffffffffffffffffffff16906020019092919080359060200190929190505050611b65565b005b34801561081257600080fd5b50610889600480360381019080803573ffffffffffffffffffffffffffffffffffffffff16906020019092919080359060200190820180359060200191909192939192939080359060200190929190803573ffffffffffffffffffffffffffffffffffffffff169060200190929190505050611d12565b6040518082815260200191505060405180910390f35b3480156108ab57600080fd5b506108ce6004803603810190808035600019169060200190929190505050611dbc565b604051808260ff1660ff16815260200191505060405180910390f35b3480156108f657600080fd5b506108ff611df1565b604051808215151515815260200191505060405180910390f35b34801561092557600080fd5b5061095a600480360381019080803573ffffffffffffffffffffffffffffffffffffffff169060200190929190505050611e08565b604051808215151515815260200191505060405180910390f35b34801561098057600080fd5b5061099f60048036038101908080359060200190929190505050611e28565b60405180826000191660001916815260200191505060405180910390f35b3480156109c957600080fd5b50610a1e600480360381019080803573ffffffffffffffffffffffffffffffffffffffff169060200190929190803573ffffffffffffffffffffffffffffffffffffffff169060200190929190505050611e4b565b005b348015610a2c57600080fd5b50610a79600480360381019080803573ffffffffffffffffffffffffffffffffffffffff169060200190929190803590602001908201803590602001919091929391929390505050611ef4565b005b348015610a8757600080fd5b50610a9061222c565b6040518082815260200191505060405180910390f35b348015610ab257600080fd5b50610abb612232565b6040518082815260200191505060405180910390f35b60016000808373ffffffffffffffffffffffffffffffffffffffff1673ffffffffffffffffffffffffffffffffffffffff16815260200190815260200160002060000160016101000a81548160ff02191690831515021790555050565b600181815481101515610b3d57fe5b906000526020600020016000915054906101000a900473ffffffffffffffffffffffffffffffffffffffff1681565b600080600660008473ffffffffffffffffffffffffffffffffffffffff1673ffffffffffffffffffffffffffffffffffffffff16815260200190815260200160002054111515610c24576040517f08c379a000000000000000000000000000000000000000000000000000000000815260040180806020018281038252601e8152602001807f546869732070617373656e67657220686173206e6f2062616c616e63652e000081525060200191505060405180910390fd5b600660008373ffffffffffffffffffffffffffffffffffffffff1673ffffffffffffffffffffffffffffffffffffffff1681526020019081526020016000205490506000600660008473ffffffffffffffffffffffffffffffffffffffff1673ffffffffffffffffffffffffffffffffffffffff168152602001908152602001600020819055508173ffffffffffffffffffffffffffffffffffffffff166108fc829081150290604051600060405180830381858888f19350505050158015610cf1573d6000803e3d6000fd5b505050565b60008060008373ffffffffffffffffffffffffffffffffffffffff1673ffffffffffffffffffffffffffffffffffffffff16815260200190815260200160002060000160009054906101000a900460ff169050919050565b610d5661266a565b60026000846000191660001916815260200190815260200160002060c060405190810160405290816000820160009054906101000a900460ff161515151581526020016000820160019054906101000a900460ff1660ff1660ff168152602001600182015481526020016002820160009054906101000a900473ffffffffffffffffffffffffffffffffffffffff1673ffffffffffffffffffffffffffffffffffffffff1673ffffffffffffffffffffffffffffffffffffffff168152602001600382018054600181600116156101000203166002900480601f016020809104026020016040519081016040528092919081815260200182805460018160011615610100020316600290048015610eae5780601f10610e8357610100808354040283529160200191610eae565b820191906000526020600020905b815481529060010190602001808311610e9157829003601f168201915b5050505050815260200160048201805480602002602001604051908101604052809291908181526020018280548015610f3c57602002820191906000526020600020905b8160009054906101000a900473ffffffffffffffffffffffffffffffffffffffff1673ffffffffffffffffffffffffffffffffffffffff1681526020019060010190808311610ef2575b505050505081525050905080600001511515610fe6576040517f08c379a00000000000000000000000000000000000000000000000000000000081526004018080602001828103825260238152602001807f5468697320666c69676874206861736e2774206265656e20726567697374657281526020017f656421000000000000000000000000000000000000000000000000000000000081525060400191505060405180910390fd5b8160026000856000191660001916815260200190815260200160002060000160016101000a81548160ff021916908360ff1602179055507f21c01a346d9551e38a25aab68b0e786ab0a71aee67c32f60aa7a5c4713cbc03683838360a00151516040518084600019166000191681526020018360ff1660ff168152602001828152602001935050505060405180910390a160148260ff16141561108d5761108c8361223c565b5b505050565b600460009054906101000a900473ffffffffffffffffffffffffffffffffffffffff1673ffffffffffffffffffffffffffffffffffffffff163373ffffffffffffffffffffffffffffffffffffffff16141515611157576040517f08c379a000000000000000000000000000000000000000000000000000000000815260040180806020018281038252601c8152602001807f43616c6c6572206973206e6f7420636f6e7472616374206f776e65720000000081525060200191505060405180910390fd5b80600460146101000a81548160ff02191690831515021790555050565b60026020528060005260406000206000915090508060000160009054906101000a900460ff16908060000160019054906101000a900460ff16908060010154908060020160009054906101000a900473ffffffffffffffffffffffffffffffffffffffff1690806003018054600181600116156101000203166002900480601f0160208091040260200160405190810160405280929190818152602001828054600181600116156101000203166002900480156112725780601f1061124757610100808354040283529160200191611272565b820191906000526020600020905b81548152906001019060200180831161125557829003601f168201915b5050505050905085565b60066020528060005260406000206000915090505481565b60006020528060005260406000206000915090508060000160009054906101000a900460ff16908060000160019054906101000a900460ff1690806001018054600181600116156101000203166002900480601f0160208091040260200160405190810160405280929190818152602001828054600181600116156101000203166002900480156113665780601f1061133b57610100808354040283529160200191611366565b820191906000526020600020905b81548152906001019060200180831161134957829003601f168201915b5050505050905083565b606060038054806020026020016040519081016040528092919081815260200182805480156113c257602002820191906000526020600020905b815460001916815260200190600101908083116113aa575b5050505050905090565b6060600180548060200260200160405190810160405280929190818152602001828054801561145057602002820191906000526020600020905b8160009054906101000a900473ffffffffffffffffffffffffffffffffffffffff1673ffffffffffffffffffffffffffffffffffffffff1681526020019060010190808311611406575b5050505050905090565b60606000808373ffffffffffffffffffffffffffffffffffffffff1673ffffffffffffffffffffffffffffffffffffffff16815260200190815260200160002060020180548060200260200160405190810160405280929190818152602001828054801561151d57602002820191906000526020600020905b8160009054906101000a900473ffffffffffffffffffffffffffffffffffffffff1673ffffffffffffffffffffffffffffffffffffffff16815260200190600101908083116114d3575b50505050509050919050565b6000826000808273ffffffffffffffffffffffffffffffffffffffff1673ffffffffffffffffffffffffffffffffffffffff16815260200190815260200160002060000160019054906101000a900460ff1615156115ef576040517f08c379a000000000000000000000000000000000000000000000000000000000815260040180806020018281038252601c8152602001807f546865206169726c696e652073686f756c642062652066756e6465640000000081525060200191505060405180910390fd5b61162c8487878080601f016020809104026020016040519081016040528093929190818152602001838380828437820191505050505050856124db565b91506000151560026000846000191660001916815260200190815260200160002060000160009054906101000a900460ff1615151415156116d5576040517f08c379a000000000000000000000000000000000000000000000000000000000815260040180806020018281038252601f8152602001807f5468697320666c6967687420686173206265656e20726567697374657265640081525060200191505060405180910390fd5b60c060405190810160405280600115158152602001600060ff1681526020018481526020018573ffffffffffffffffffffffffffffffffffffffff16815260200187878080601f0160208091040260200160405190810160405280939291908181526020018383808284378201915050505050508152602001600060405190808252806020026020018201604052801561177e5781602001602082028038833980820191505090505b5081525060026000846000191660001916815260200190815260200160002060008201518160000160006101000a81548160ff02191690831515021790555060208201518160000160016101000a81548160ff021916908360ff1602179055506040820151816001015560608201518160020160006101000a81548173ffffffffffffffffffffffffffffffffffffffff021916908373ffffffffffffffffffffffffffffffffffffffff160217905550608082015181600301908051906020019061184b9291906126bc565b5060a082015181600401908051906020019061186892919061273c565b509050506003829080600181540180825580915050906001820390600052602060002001600090919290919091509060001916905550505050505050565b60008060008060008573ffffffffffffffffffffffffffffffffffffffff1673ffffffffffffffffffffffffffffffffffffffff16815260200190815260200160002060000160009054906101000a900460ff1692506000808573ffffffffffffffffffffffffffffffffffffffff1673ffffffffffffffffffffffffffffffffffffffff16815260200190815260200160002060000160019054906101000a900460ff1691506000808573ffffffffffffffffffffffffffffffffffffffff1673ffffffffffffffffffffffffffffffffffffffff1681526020019081526020016000206002018054905090509193909250565b600460149054906101000a900460ff161515611a45576040517f08c379a00000000000000000000000000000000000000000000000000000000081526004018080602001828103825260258152602001807f436f6e74726163742069732063757272656e746c79206e6f74206f706572617481526020017f696f6e616c00000000000000000000000000000000000000000000000000000081525060400191505060405180910390fd5b600460009054906101000a900473ffffffffffffffffffffffffffffffffffffffff1673ffffffffffffffffffffffffffffffffffffffff163373ffffffffffffffffffffffffffffffffffffffff16141515611b0a576040517f08c379a000000000000000000000000000000000000000000000000000000000815260040180806020018281038252601c8152602001807f43616c6c6572206973206e6f7420636f6e7472616374206f776e65720000000081525060200191505060405180910390fd5b6001600760008373ffffffffffffffffffffffffffffffffffffffff1673ffffffffffffffffffffffffffffffffffffffff16815260200190815260200160002060006101000a81548160ff02191690831515021790555050565b60026000846000191660001916815260200190815260200160002060000160009054906101000a900460ff161515611c2b576040517f08c379a00000000000000000000000000000000000000000000000000000000081526004018080602001828103825260248152602001807f546869732066696c69676874206861736e2774206265656e207265676973746581526020017f726564210000000000000000000000000000000000000000000000000000000081525060400191505060405180910390fd5b8060026000856000191660001916815260200190815260200160002060050160008473ffffffffffffffffffffffffffffffffffffffff1673ffffffffffffffffffffffffffffffffffffffff168152602001908152602001600020819055506002600084600019166000191681526020019081526020016000206004018290806001815401808255809150509060018203906000526020600020016000909192909190916101000a81548173ffffffffffffffffffffffffffffffffffffffff021916908373ffffffffffffffffffffffffffffffffffffffff16021790555050505050565b600080611d528787878080601f016020809104026020016040519081016040528093929190818152602001838380828437820191505050505050866124db565b905060026000826000191660001916815260200190815260200160002060050160008473ffffffffffffffffffffffffffffffffffffffff1673ffffffffffffffffffffffffffffffffffffffff1681526020019081526020016000205491505095945050505050565b600060026000836000191660001916815260200190815260200160002060000160019054906101000a900460ff169050919050565b6000600460149054906101000a900460ff16905090565b60076020528060005260406000206000915054906101000a900460ff1681565b600381815481101515611e3757fe5b906000526020600020016000915090505481565b6000808373ffffffffffffffffffffffffffffffffffffffff1673ffffffffffffffffffffffffffffffffffffffff1681526020019081526020016000206002018190806001815401808255809150509060018203906000526020600020016000909192909190916101000a81548173ffffffffffffffffffffffffffffffffffffffff021916908373ffffffffffffffffffffffffffffffffffffffff160217905550505050565b600460149054906101000a900460ff161515611f9e576040517f08c379a00000000000000000000000000000000000000000000000000000000081526004018080602001828103825260258152602001807f436f6e74726163742069732063757272656e746c79206e6f74206f706572617481526020017f696f6e616c00000000000000000000000000000000000000000000000000000081525060400191505060405180910390fd5b82600073ffffffffffffffffffffffffffffffffffffffff168173ffffffffffffffffffffffffffffffffffffffff1614151515612044576040517f08c379a00000000000000000000000000000000000000000000000000000000081526004018080602001828103825260198152602001807f5468652061646472657373206973206e6f742076616c6964210000000000000081525060200191505060405180910390fd5b326000808273ffffffffffffffffffffffffffffffffffffffff1673ffffffffffffffffffffffffffffffffffffffff16815260200190815260200160002060000160019054906101000a900460ff161515612108576040517f08c379a000000000000000000000000000000000000000000000000000000000815260040180806020018281038252601c8152602001807f546865206169726c696e652073686f756c642062652066756e6465640000000081525060200191505060405180910390fd5b60016000808773ffffffffffffffffffffffffffffffffffffffff1673ffffffffffffffffffffffffffffffffffffffff16815260200190815260200160002060000160006101000a81548160ff02191690831515021790555083836000808873ffffffffffffffffffffffffffffffffffffffff1673ffffffffffffffffffffffffffffffffffffffff16815260200190815260200160002060010191906121b29291906127c6565b5060016005540160058190555060018590806001815401808255809150509060018203906000526020600020016000909192909190916101000a81548173ffffffffffffffffffffffffffffffffffffffff021916908373ffffffffffffffffffffffffffffffffffffffff160217905550505050505050565b60055481565b6000600554905090565b60008060008060026000866000191660001916815260200190815260200160002093508360000160009054906101000a900460ff16151561230b576040517f08c379a00000000000000000000000000000000000000000000000000000000081526004018080602001828103825260238152602001807f5468697320666c69676874206861736e2774206265656e20726567697374657281526020017f656421000000000000000000000000000000000000000000000000000000000081525060400191505060405180910390fd5b600092505b83600401805490508310156124d457836004018381548110151561233057fe5b9060005260206000200160009054906101000a900473ffffffffffffffffffffffffffffffffffffffff1691506123c560026123b760038760050160008773ffffffffffffffffffffffffffffffffffffffff1673ffffffffffffffffffffffffffffffffffffffff1681526020019081526020016000205461260090919063ffffffff16565b61263890919063ffffffff16565b90507f9ca076da5b160bab7720012b0560535eb58b48f525eb8689a874d74cf24976dd8282604051808373ffffffffffffffffffffffffffffffffffffffff1673ffffffffffffffffffffffffffffffffffffffff1681526020018281526020019250505060405180910390a161248481600660008573ffffffffffffffffffffffffffffffffffffffff1673ffffffffffffffffffffffffffffffffffffffff1681526020019081526020016000205461264e90919063ffffffff16565b600660008473ffffffffffffffffffffffffffffffffffffffff1673ffffffffffffffffffffffffffffffffffffffff168152602001908152602001600020819055508280600101935050612310565b5050505050565b6000838383604051602001808473ffffffffffffffffffffffffffffffffffffffff1673ffffffffffffffffffffffffffffffffffffffff166c0100000000000000000000000002815260140183805190602001908083835b6020831015156125595780518252602082019150602081019050602083039250612534565b6001836020036101000a03801982511681845116808217855250505050505090500182815260200193505050506040516020818303038152906040526040518082805190602001908083835b6020831015156125ca57805182526020820191506020810190506020830392506125a5565b6001836020036101000a038019825116818451168082178552505050505050905001915050604051809103902090509392505050565b6000808314156126135760009050612632565b818302905081838281151561262457fe5b0414151561262e57fe5b8090505b92915050565b6000818381151561264557fe5b04905092915050565b6000818301905082811015151561266157fe5b80905092915050565b60c060405190810160405280600015158152602001600060ff16815260200160008152602001600073ffffffffffffffffffffffffffffffffffffffff16815260200160608152602001606081525090565b828054600181600116156101000203166002900490600052602060002090601f016020900481019282601f106126fd57805160ff191683800117855561272b565b8280016001018555821561272b579182015b8281111561272a57825182559160200191906001019061270f565b5b5090506127389190612846565b5090565b8280548282559060005260206000209081019282156127b5579160200282015b828111156127b45782518260006101000a81548173ffffffffffffffffffffffffffffffffffffffff021916908373ffffffffffffffffffffffffffffffffffffffff1602179055509160200191906001019061275c565b5b5090506127c2919061286b565b5090565b828054600181600116156101000203166002900490600052602060002090601f016020900481019282601f1061280757803560ff1916838001178555612835565b82800160010185558215612835579182015b82811115612834578235825591602001919060010190612819565b5b5090506128429190612846565b5090565b61286891905b8082111561286457600081600090555060010161284c565b5090565b90565b6128ab91905b808211156128a757600081816101000a81549073ffffffffffffffffffffffffffffffffffffffff021916905550600101612871565b5090565b905600a165627a7a723058206b56c94f6ae0632a63a655aa4e1b626e82366cb5fe16c95f970d9614fb0002480029",
  "source": "pragma solidity >=0.4.25;\n\nimport \"../node_modules/openzeppelin-solidity/contracts/math/SafeMath.sol\";\n\ncontract FlightSuretyData {\n    using SafeMath for uint256;\n\n    /********************************************************************************************/\n    /*                                       DATA VARIABLES                                     */\n    /********************************************************************************************/\n\n    // Flight status codees\n    uint8 private constant STATUS_CODE_UNKNOWN = 0;\n    uint8 private constant STATUS_CODE_ON_TIME = 10;\n    uint8 private constant STATUS_CODE_LATE_AIRLINE = 20;\n    uint8 private constant STATUS_CODE_LATE_WEATHER = 30;\n    uint8 private constant STATUS_CODE_LATE_TECHNICAL = 40;\n    uint8 private constant STATUS_CODE_LATE_OTHER = 50;\n\n    struct AirlineInfo {\n        bool isRegistered;\n        bool isFunded;\n        string name;\n        address[] approvedBy;\n    }\n    mapping(address => AirlineInfo) public airlines;\n    address[] public airline_list;\n\n    struct Flight {\n        bool isRegistered;\n        uint8 statusCode;\n        uint256 updatedTimestamp;        \n        address airline;\n        string flight;\n        address[] insuredPassengers;\n        mapping(address => uint256) passengersPaymentAmount;\n    }\n    mapping(bytes32 => Flight) public flights;\n    bytes32[] public flight_list;\n\n    address private contractOwner;                                      // Account used to deploy contract\n    bool private operational = true;                                    // Blocks all state changes throughout the contract if false\n    uint256 public registeredAirlinesCount = 1; // TODO: private\n\n    mapping(address => uint256) public passengersBalances;\n    mapping(address => bool) public authorizedContracts;\n    //mapping(address => uint256) public insurees;\n    /********************************************************************************************/\n    /*                                       EVENT DEFINITIONS                                  */\n    /********************************************************************************************/\n    event FlightStatusUpdated(bytes32 flightKey, uint8 status, uint256 passengersCount);\n    event AmountRefundedToPassengerBalance(address passenger, uint256 refundAmount);\n    \n    \n    /**\n    * @dev Constructor\n    *      The deploying account becomes contractOwner\n    */\n    constructor\n                                (\n                                    address firstAirlineAddress\n                                ) \n                                public \n    {\n        contractOwner = msg.sender;\n        // TODO: name\n        airlines[firstAirlineAddress] = AirlineInfo({\n            isRegistered: true,\n            isFunded: false,\n            name: 'First Airline',\n            approvedBy: new address[](0)\n        });\n        airline_list.push(firstAirlineAddress);\n        registeredAirlinesCount = 1;\n    }\n\n    /********************************************************************************************/\n    /*                                       FUNCTION MODIFIERS                                 */\n    /********************************************************************************************/\n\n    // Modifiers help avoid duplication of code. They are typically used to validate something\n    // before a function is allowed to be executed.\n\n    /**\n    * @dev Modifier that requires the \"operational\" boolean variable to be \"true\"\n    *      This is used on all state changing functions to pause the contract in \n    *      the event there is an issue that needs to be fixed\n    */\n    modifier requireIsOperational() \n    {\n        require(operational, \"Contract is currently not operational\");\n        _;  // All modifiers require an \"_\" which indicates where the function body will be added\n    }\n\n    /**\n    * @dev Modifier that requires the \"ContractOwner\" account to be the function caller\n    */\n    modifier requireContractOwner()\n    {\n        require(msg.sender == contractOwner, \"Caller is not contract owner\");\n        _;\n    }\n\n    // address0\n    modifier requireValidAddress(address a)\n    {\n        require(a!=address(0), \"The address is not valid!\");\n        _;\n    }\n\n\n    modifier requireAuthorizedCaller() {\n        require(authorizedContracts[msg.sender] == true, \"The app contract is not authorized!\");\n        _;\n    }\n\n    modifier requireAirlineFunded(address airline) {\n        require(airlines[airline].isFunded, \"The airline should be funded\");\n        _;\n    }\n\n    /********************************************************************************************/\n    /*                                       UTILITY FUNCTIONS                                  */\n    /********************************************************************************************/\n\n    /**\n    * @dev Get operating status of contract\n    *\n    * @return A bool that is the current operating status\n    */      \n    function isOperational() \n                            public \n                            view \n                            returns(bool) \n    {\n        return operational;\n    }\n\n\n    /**\n    * @dev Sets contract operations on/off\n    *\n    * When operational mode is disabled, all write transactions except for this one will fail\n    */    \n    function setOperatingStatus\n                            (\n                                bool mode\n                            ) \n                            external\n                            requireContractOwner \n    {\n        operational = mode;\n    }\n\n    // modifierappcontractdatacontract\n    function authorizeAppContract(address contractAddress)\n                                external \n                                requireIsOperational\n                                requireContractOwner\n    {\n        authorizedContracts[contractAddress] = true;\n    }\n\n    // airline\n    function isAirline(address airline) external returns(bool)\n    {\n        return airlines[airline].isRegistered;\n    } \n\n    // TODO: airline\n    function getRegisteredAirlinesCount() external returns(uint256)\n    {\n        return registeredAirlinesCount;\n    }\n\n    // TODO: airline\n    function getAirlineInfo(address airline) external returns(bool isRegistered, bool isFunded, uint256 numOfApproved)\n    {\n        isRegistered = airlines[airline].isRegistered;\n        isFunded = airlines[airline].isFunded;\n        numOfApproved = airlines[airline].approvedBy.length;\n    }\n\n    // TODO: airlineairlinemsg.sender\n    function getAirlineApprovalList(address airline) external returns(address[]) \n    {\n        return airlines[airline].approvedBy;\n    }\n\n    // TODO: passenger\n    function getPassengerInsuredAmount(address airline, string flight, uint256 timestamp, address passenger) external returns(uint256)\n    {\n        bytes32 key = getFlightKey(airline, flight, timestamp);\n        return flights[key].passengersPaymentAmount[passenger];\n    }\n\n    function getFlightKeyStatus(bytes32 flightKey) external returns(uint8) {\n        return flights[flightKey].statusCode;\n    }\n\n    /********************************************************************************************/\n    /*                                     SMART CONTRACT FUNCTIONS                             */\n    /********************************************************************************************/\n\n   /**\n    * @dev Add an airline to the registration queue\n    *      Can only be called from FlightSuretyApp contract\n    *\n    */   \n    function registerAirline\n                            (   \n                                address airline,\n                                string name\n                            )\n                            external\n                            requireIsOperational\n                            requireValidAddress(airline)\n                            requireAirlineFunded(tx.origin)\n    {\n        airlines[airline].isRegistered = true;\n        airlines[airline].name = name;\n        registeredAirlinesCount = registeredAirlinesCount + 1;\n        airline_list.push(airline);\n    }\n\n\n    // TODO: airlineapprovalairline\n    function addToAirlineApprovalList(address airline, address approver) external\n    {\n        airlines[airline].approvedBy.push(approver);\n    }\n\n    function registerFlight (string flight, address airline, uint256 timestamp) external requireAirlineFunded(airline) \n    {\n        // TODO: \n        // ****** getFlightKeykey ****** \n        bytes32 flightKey = getFlightKey(airline, flight, timestamp);\n        // ******  ******\n        require(flights[flightKey].isRegistered == false, \"This flight has been registered\");\n       // ****** keyflight ******\n       flights[flightKey] = Flight({\n            isRegistered: true,\n            statusCode: STATUS_CODE_UNKNOWN,\n            updatedTimestamp: timestamp,\n            airline: airline,\n            flight: flight,\n            insuredPassengers: new address[](0)\n       });\n       flight_list.push(flightKey);\n    }\n    // TODO: flight\n    function processFlightStatus(bytes32 flightKey, uint8 statusCode) external \n    {\n        // ******* flightKeyflight *******\n        Flight memory flight = flights[flightKey];\n        // ****** flight ******       \n        require(flight.isRegistered, \"This flight hasn't been registered!\");\n        // ****** statusCode ******   \n        flights[flightKey].statusCode = statusCode;\n        // ****** emitevent ****** \n        emit FlightStatusUpdated(flightKey, statusCode, flight.insuredPassengers.length);\n        // ****** statusCode20airline latecreditInsurees ****** \n        if (statusCode == 20) {\n            creditInsurees(flightKey);\n        }\n    }\n\n   /**\n    * @dev Buy insurance for a flight\n    *\n    */   \n    function buy\n                            (\n                                bytes32 flightKey,          \n                                address passenger,  \n                                uint256 price                 \n                            )   \n                            external\n                            //payable\n    {\n        require(flights[flightKey].isRegistered, \"This filight hasn't been registered!\");\n\n        //flights[flightKey].passengersPaymentAmount[passenger] = uint256(msg.value);        \n        //flights[flightKey].passengersPaymentAmount[passenger] = uint256(0.5 ether);   //\n        flights[flightKey].passengersPaymentAmount[passenger] = price; \n        flights[flightKey].insuredPassengers.push(passenger);\n    }\n\n    /**\n     *  @dev Credits payouts to insurees\n    */\n    function creditInsurees\n                                (\n                                    bytes32 flightKey\n                                )\n                                internal\n    {\n        Flight storage flight = flights[flightKey];\n        require(flight.isRegistered, \"This flight hasn't been registered!\");\n\n        for(uint i=0; i<flight.insuredPassengers.length; i++) {\n            address passenger = flight.insuredPassengers[i];\n            uint256 refundAmount = flight.passengersPaymentAmount[passenger].mul(3).div(2);\n            emit AmountRefundedToPassengerBalance(passenger, refundAmount);\n            passengersBalances[passenger] = passengersBalances[passenger].add(refundAmount);\n        }\n    }\n    \n\n    /**\n     *  @dev Transfers eligible payout funds to insuree\n     *\n    */\n    function pay\n                            (\n                                address passenger\n                            )\n                            external\n    {\n        require(passengersBalances[passenger]>0, \"This passenger has no balance.\");\n\n        uint256 value = passengersBalances[passenger];\n        passengersBalances[passenger] = 0;\n        passenger.transfer(value);\n    }\n\n   /**\n    * @dev Initial funding for the insurance. Unless there are too many delayed flights\n    *      resulting in insurance payouts, the contract should be self-sustaining\n    *\n    */   \n    function fund\n                            (   \n                                address airline\n                            )\n                            public\n                            payable\n    {\n        airlines[airline].isFunded = true;\n    }\n\n    function getFlightKey\n                        (\n                            address airline,\n                            string memory flight,\n                            uint256 timestamp\n                        )\n                        pure\n                        internal\n                        returns(bytes32) \n    {\n        return keccak256(abi.encodePacked(airline, flight, timestamp));\n    }\n\n    function getAllAirlines() external view returns(address[]) {\n        return airline_list;\n    }\n\n    function getAllFlights() external view returns(bytes32[]) {\n        return flight_list;\n    }\n    /**\n    * @dev Fallback function for funding smart contract.\n    *\n    */\n    function() \n                            external \n                            payable \n    {\n        //TODO: \n        fund(tx.origin);\n    }\n\n\n}\n\n",
  "sourcePath": "/Users/hong/OneDrive - shanghaitech.edu.cn/projects/blockchainND/lesson6/project/FlightSurety/contracts/FlightSuretyData.sol",
  "compiler": {
    "name": "solc",
    "version": "0.4.26+commit.4563c3fc.Emscripten.clang"
  },
  "schemaVersion": "3.0.9",
  "updatedAt": "2019-08-18T02:52:22.358Z",
  "devdoc": {
    "methods": {
      "buy(bytes32,address,uint256)": {
        "details": "Buy insurance for a flight    "
      },
      "fund(address)": {
        "details": "Initial funding for the insurance. Unless there are too many delayed flights     resulting in insurance payouts, the contract should be self-sustaining    "
      },
      "isOperational()": {
        "details": "Get operating status of contract",
        "return": "A bool that is the current operating status"
      },
      "pay(address)": {
        "details": "Transfers eligible payout funds to insuree    "
      },
      "registerAirline(address,string)": {
        "details": "Add an airline to the registration queue     Can only be called from FlightSuretyApp contract    "
      },
      "setOperatingStatus(bool)": {
        "details": "Sets contract operations on/off    * When operational mode is disabled, all write transactions except for this one will fail"
      }
    }
  },
  "userdoc": {
    "methods": {}
  }
}